:100000000C942A000C94C5070C94F8070C942B0848
:100010000C9447000C9447000C9447000C94470044
:100020000C9447000C9447000C9447000C94470034
:100030000C9447000C9447000C9447000C94470024
:100040000C9447000C9447000C9447000C94470014
:100050000C94470011241FBECFE5D8E0DEBFCDBF12
:1000600011E0A0E6B0E0ECE0FBE202C005900D92EA
:10007000A03EB107D9F711E0A0EEB1E001C01D929A
:10008000A63EB107E1F70E94D8110C9484150C9498
:100090000000EF92FF920F931F937B018C0120E0F1
:1000A00030E040E05FE40E94190388238CF0C8012F
:1000B000B70120E030E040E05FE40E94C1010E940F
:1000C00079039B01AC01205030404040504806C0AD
:1000D000C801B7010E9479039B01AC01B901CA01B3
:1000E0001F910F91FF90EF900895A0E0B0E0EBE733
:1000F000F0E00C94AC12DC012B01FA019C919230DF
:1001000008F439C1EB018881823008F433C194309E
:1001100069F4843009F02FC111969C91119789815F
:10012000981709F428C1AAE6B0E025C1843009F483
:1001300021C18230A9F4923009F01DC19A01AD01AC
:1001400088E0EA010990AE01E90109929E0181501F
:10015000C1F7E201898111969C918923818308C1AD
:10016000923009F407C112962D903C901397EB0141
:100170008A819B811496AD90BD90CD90DC901797AD
:10018000EC80FD800E811F819101281B390BB90184
:1001900037FF04C066277727621B730B6032710537
:1001A0000CF061C0121613066CF537014801062EDB
:1001B00004C096948794779467940A94D2F721E0C8
:1001C00030E040E050E004C0220F331F441F551FB1
:1001D0006A95D2F721503040404050402E213F21B7
:1001E00040235123211531054105510521F021E01E
:1001F00030E040E050E079018A01E628F72808293C
:1002000019293CC0232BD1F1260E371E350146019A
:10021000062E04C096948794779467940A94D2F734
:1002200021E030E040E050E004C0220F331F441FC3
:10023000551F6A95D2F721503040404050402A2146
:100240003B214C215D21211531054105510521F04E
:1002500021E030E040E050E059016A01A628B728CB
:10026000C828D9280BC0821593052CF01C01AA249C
:10027000BB24650103C0EE24FF24870111969C91E5
:10028000D20111968C91981709F445C0992339F041
:10029000A80197012A193B094C095D0906C0A6016E
:1002A00095012E193F09400B510B57FD08C01182D3
:1002B0003382228224833583468357831DC081E0A5
:1002C00081833382228288279927DC01821B930B4A
:1002D000A40BB50B84839583A683B7830DC0220F2F
:1002E000331F441F551F24833583468357838281E0
:1002F000938101979383828324813581468157813D
:10030000DA01C9010197A109B1098F5F9F4FAF4F72
:10031000BF4328F30BC0918333822282EA0CFB1C7B
:100320000C1D1D1DE482F5820683178383E0808304
:10033000248135814681578157FF1AC0C901AA27F8
:1003400097FDA095BA2F81709070A070B0705695EF
:10035000479537952795822B932BA42BB52B848318
:100360009583A683B7838281938101969383828349
:10037000DF0101C0D201CD01CDB7DEB7E2E10C94BF
:10038000C812A0E2B0E0E7ECF1E00C94B812698387
:100390007A838B839C832D833E834F835887E9E048
:1003A000EE2EF12CEC0EFD1ECE010196B7010E943F
:1003B0006A058E010F5E1F4FCE010596B8010E949F
:1003C0006A058A8991E089278A8BC701B801AE0145
:1003D000475E5F4F0E9475000E949504A096E6E07C
:1003E0000C94D412A0E2B0E0E8EFF1E00C94B81263
:1003F00069837A838B839C832D833E834F835887C5
:10040000F9E0EF2EF12CEC0EFD1ECE010196B701A6
:100410000E946A058E010F5E1F4FCE010596B8013E
:100420000E946A05C701B801AE01475E5F4F0E9496
:1004300075000E949504A096E6E00C94D412A0E208
:10044000B0E0E5E2F2E00C94AC1269837A838B832E
:100450009C832D833E834F835887CE010196BE0136
:10046000675F7F4F0E946A05CE010596BE016F5EF1
:100470007F4F0E946A059985923088F08989823081
:10048000C8F0943019F4823051F404C0843029F457
:10049000923081F48AE690E0C6C0923049F420E0C0
:1004A0009A858A89981321E02A87CE010996BBC0D4
:1004B000823049F420E09A858A89981321E02A8BBA
:1004C000CE014196B0C02D843E844F8458886D88FB
:1004D0007E888F88988CEE24FF248701AA24BB2471
:1004E000650140E050E060E070E0E0E0F0E0C10174
:1004F00081709070892BE9F0E60CF71C081D191D1E
:100500009A01AB012A0D3B1D4C1D5D1D80E090E062
:10051000A0E0B0E0E614F7040805190520F481E036
:1005200090E0A0E0B0E0BA01A901480F591F6A1F8E
:100530007B1FAA0CBB1CCC1CDD1C97FE08C081E0F5
:1005400090E0A0E0B0E0A82AB92ACA2ADB2A3196B6
:10055000E032F10549F0660C771C881C991C569412
:10056000479437942794C3CFFA85EA892B893C892D
:100570008B859C85280F391F2E5F3F4F17C0CA01FE
:1005800081709070892B61F016950795F794E79428
:1005900080E090E0A0E0B0E8E82AF92A0A2B1B2BC3
:1005A00076956795579547952F5F3F4F77FDE7CF36
:1005B0000CC0440F551F661F771F17FD4160EE0CDE
:1005C000FF1C001F111F21503040403090E05907A0
:1005D00090E0690790E4790760F32B8F3C8FDB0193
:1005E000CA018F779070A070B07080349105A1051A
:1005F000B10561F447FD0AC0E114F10401051105DC
:1006000029F0405C5F4F6F4F7F4F40781A8EFE1786
:1006100011F081E08A8F4D8F5E8F6F8F78A383E01A
:10062000898FCE0149960E949504A096E2E10C9430
:10063000C812A8E1B0E0EFE1F3E00C94B8126983CE
:100640007A838B839C832D833E834F83588789E0F5
:10065000E82EF12CEC0EFD1ECE010196B7010E9492
:100660006A058E010F5E1F4FCE010596B8010E94EC
:100670006A058985823040F08989823028F0C70177
:10068000B8010E94E20501C08FEF6896E6E00C9485
:10069000D412A8E1B0E0EFE4F3E00C94B81269835F
:1006A0007A838B839C832D833E834F83588789E095
:1006B000E82EF12CEC0EFD1ECE010196B7010E9432
:1006C0006A058E010F5E1F4FCE010596B8010E948C
:1006D0006A058985823040F08989823028F0C70117
:1006E000B8010E94E20501C081E06896E6E00C9442
:1006F000D412ACE0B0E0EFE7F3E00C94BC126983F5
:100700007A838B839C83CE010196BE016B5F7F4F02
:100710000E946A058D81823061F1823050F184300F
:1007200021F48E81882351F12EC02F81388537FD29
:1007300020C06E812F3131051CF06623F9F023C0F3
:100740008EE190E0821B930B29853A854B855C8571
:1007500004C056954795379527958A95D2F7662315
:10076000B1F050954095309521953F4F4F4F5F4FD9
:100770000EC020E030E040E050E009C02FEF3FEF36
:100780004FEF5FE704C020E030E040E050E8B901FF
:10079000CA012C96E2E00C94D812A8E0B0E0E3ED98
:1007A000F3E00C94B4127B018C0161157105810595
:1007B000910519F482E0898360C083E089838EE12A
:1007C000C82ED12CDC82CB82ED82FE820F8318876B
:1007D000C801B7010E944604FC013197F7FF3BC0F6
:1007E000222733272E1B3F0B57016801022E04C01E
:1007F000D694C794B794A7940A94D2F740E050E0F7
:1008000060E070E081E090E0A0E0B0E004C0880F1C
:10081000991FAA1FBB1F2A95D2F70197A109B109F9
:100820008E219F21A023B1230097A105B10521F0BE
:1008300041E050E060E070E04A295B296C297D29A5
:100840004D835E836F8378878EE190E08E1B9F0BD4
:100850009C838B8312C0309781F00E2E04C0EE0C67
:10086000FF1C001F111F0A94D2F7ED82FE820F8336
:100870001887CE1ADF0ADC82CB821A82CE0101965B
:100880000E9495042896EAE00C94D012EF92FF9211
:100890000F931F937B018C0180E0E81680E0F8063F
:1008A00081E0080780E0180788F48FEFE816F1046C
:1008B0000105110531F028F088E090E0A0E0B0E0FB
:1008C00017C080E090E0A0E0B0E012C080E0E81641
:1008D00080E0F80680E0080781E0180728F088E14A
:1008E00090E0A0E0B0E004C080E190E0A0E0B0E0E3
:1008F00020E230E040E050E0281B390B4A0B5B0B54
:1009000004C016950795F794E7948A95D2F7F701F6
:10091000EE58FF4F8081281B310941095109C90157
:100920001F910F91FF90EF900895DF92EF92FF9249
:100930000F931F93FC01E480F58006811781D1801D
:100940008081823048F480E090E0A0E1B0E0E82AC5
:10095000F92A0A2B1B2BA5C0843009F49FC08230D2
:1009600021F4EE24FF24870105C0E114F104010500
:10097000110519F4E0E0F0E096C0628173819FEF09
:10098000623879070CF05BC022E83FEF261B370B7B
:100990002A3131052CF020E030E040E050E02AC060
:1009A000B801A701022E04C0769567955795479523
:1009B0000A94D2F781E090E0A0E0B0E004C0880F94
:1009C000991FAA1FBB1F2A95D2F70197A109B10948
:1009D0008E219F21A023B1230097A105B10521F00D
:1009E00081E090E0A0E0B0E09A01AB01282B392B28
:1009F0004A2B5B2BDA01C9018F779070A070B07021
:100A000080349105A105B10539F427FF09C0205CA8
:100A10003F4F4F4F5F4F04C0215C3F4F4F4F5F4FE1
:100A2000E0E0F0E02030A0E03A07A0E04A07A0E4D0
:100A30005A0710F0E1E0F0E079018A0127C0603840
:100A4000710564F5FB01E158FF4FD801C7018F77AD
:100A50009070A070B07080349105A105B10539F493
:100A6000E7FE0DC080E490E0A0E0B0E004C08FE3BA
:100A700090E0A0E0B0E0E80EF91E0A1F1B1F17FF70
:100A800005C016950795F794E794319687E016957B
:100A90000795F794E7948A95D1F705C0EE24FF24D3
:100AA0008701EFEFF0E06E2F679566276795902F2F
:100AB0009F77D794DD24D7948E2F8695492F462B88
:100AC000582F5D29B701CA011F910F91FF90EF9038
:100AD000DF900895FC01DB01408151812281622F6A
:100AE0006F7770E0221F2227221F9381892F880FA2
:100AF000822B282F30E0991F9927991F11969C93DC
:100B0000119721153105A9F54115510561057105AB
:100B100011F482E037C082E89FEF13969C938E9386
:100B200012979A01AB0167E0220F331F441F551F34
:100B30006A95D1F783E08C930DC0220F331F441FB9
:100B4000551F12968D919C911397019713969C9324
:100B50008E931297203080E0380780E0480780E4C9
:100B6000580758F314962D933D934D935C93179724
:100B700008952F3F310579F441155105610571053F
:100B800019F484E08C93089564FF03C081E08C9392
:100B900012C01C9210C02F57304013963C932E93D6
:100BA000129783E08C9387E0440F551F661F771FD1
:100BB0008A95D1F7706414964D935D936D937C93F1
:100BC000179708951F93DC01FB019C91923008F464
:100BD00047C08081823008F443C0943051F41196AC
:100BE0001C91843099F58181682F70E0611B710937
:100BF0003FC0843021F0923031F48230B9F18181EC
:100C0000882389F12DC011961C9111978230F1F043
:100C100081811817D9F412962D913C9113978281F6
:100C200093818217930794F028173907BCF0149624
:100C30008D919D910D90BC91A02D2481358146818F
:100C40005781281739074A075B0718F4112341F029
:100C50000AC082179307A407B50740F4112319F0BF
:100C600061E070E005C06FEF7FEF02C060E070E010
:100C7000CB011F910895DF93CF93CDB7DEB7CF910E
:100C8000DF910895DF93CF93CDB7DEB7AFE5B0E046
:100C9000EFE5F0E0808180688C93CF91DF9108953B
:100CA000DF93CF93CDB7DEB7AFE5B0E0EFE5F0E08F
:100CB00080818F778C93CF91DF910895DF93CF93CD
:100CC000CDB7DEB72A970FB6F894DEBF0FBECDBF03
:100CD00089836A838981282F30E03A87298789852B
:100CE0009A858130910509F46DC029853A852230B5
:100CF000310509F4C9C089859A85009709F0EAC0D1
:100D00008A81282F30E038872F838F819885813022
:100D1000910521F12F813885223031052CF48F8106
:100D20009885009761F046C02F81388522303105C3
:100D300021F18F8198858330910571F13BC0A5E544
:100D4000B0E0E5E5F0E080818E7F8C93A5E5B0E032
:100D5000E5E5F0E080818D7F8C932CC0A5E5B0E0C7
:100D6000E5E5F0E0808181608C93A5E5B0E0E5E504
:100D7000F0E080818D7F8C931DC0A5E5B0E0E5E5B6
:100D8000F0E080818E7F8C93A5E5B0E0E5E5F0E0B2
:100D9000808182608C930EC0A5E5B0E0E5E5F0E0CF
:100DA000808181608C93A5E5B0E0E5E5F0E080818D
:100DB00082608C93ABE5B0E0EBE5F0E0808180648D
:100DC0008C9388C08A81282F30E03E832D838D81CB
:100DD0009E818130910521F12D813E8122303105A6
:100DE0002CF48D819E81009761F046C02D813E815B
:100DF0002230310521F18D819E818330910571F181
:100E00003BC0A5E5B0E0E5E5F0E080818E7F8C9306
:100E1000A5E5B0E0E5E5F0E080818D7F8C932CC006
:100E2000A5E5B0E0E5E5F0E0808181608C93A5E583
:100E3000B0E0E5E5F0E080818D7F8C931DC0A5E5F5
:100E4000B0E0E5E5F0E080818E7F8C93A5E5B0E031
:100E5000E5E5F0E0808182608C930EC0A5E5B0E00E
:100E6000E5E5F0E0808181608C93A5E5B0E0E5E503
:100E7000F0E0808182608C93ABE5B0E0EBE5F0E0E0
:100E8000808180688C9326C08A81282F30E03C8343
:100E90002B838B819C818230910531F02B813C81A9
:100EA0002330310549F00FC0A4E5B0E0E4E5F0E0FF
:100EB00080818F7B8C9307C0A4E5B0E0E4E5F0E08F
:100EC000808180648C93ABE5B0E0EBE5F0E080815D
:100ED00080628C932A960FB6F894DEBF0FBECDBF0A
:100EE000CF91DF910895DF93CF9300D00F92CDB7CC
:100EF000DEB789838981282F30E03B832A838A816A
:100F00009B818130910589F02A813B812230310516
:100F1000A1F08A819B810097B9F4ABE5B0E0EBE5E5
:100F2000F0E080818F7B8C930FC0ABE5B0E0EBE508
:100F3000F0E080818F778C9307C0ABE5B0E0EBE504
:100F4000F0E080818F7D8C930F900F900F90CF9168
:100F5000DF910895DF93CF9300D00F92CDB7DEB726
:100F60009A8389836B838B81882F90E0880F991FE8
:100F7000FC01E052FE4F89819A81918380830F901A
:100F80000F900F90CF91DF9108951F920F920FB69F
:100F90000F9211242F933F934F935F936F937F93FF
:100FA0008F939F93AF93BF93EF93FF93DF93CF9371
:100FB000CDB7DEB78091E0019091E101009729F073
:100FC000E091E001F091E1010995CF91DF91FF916E
:100FD000EF91BF91AF919F918F917F916F915F91B1
:100FE0004F913F912F910F900FBE0F901F9018952A
:100FF0001F920F920FB60F9211242F933F934F938E
:101000005F936F937F938F939F93AF93BF93EF9370
:10101000FF93DF93CF93CDB7DEB78091E20190913C
:10102000E301009729F0E091E201F091E3010995D5
:10103000CF91DF91FF91EF91BF91AF919F918F91F0
:101040007F916F915F914F913F912F910F900FBEC4
:101050000F901F9018951F920F920FB60F921124A8
:101060002F933F934F935F936F937F938F939F93B0
:10107000AF93BF93EF93FF93DF93CF93CDB7DEB7DB
:101080008091E4019091E501009729F0E091E4015D
:10109000F091E5010995CF91DF91FF91EF91BF911B
:1010A000AF919F918F917F916F915F914F913F9100
:1010B0002F910F900FBE0F901F901895DF93CF9335
:1010C000CDB7DEB7EAE3F0E0108283E063E041E011
:1010D0000E94770883E064E041E00E94770883E0A3
:1010E00065E041E00E947708CF91DF910895DF939A
:1010F000CF93CDB7DEB72E970FB6F894DEBF0FBEF5
:10110000CDBF8A836B834C8381E089838A8184305D
:1011100008F00CC18B81883008F008C18C818130C7
:1011200021F08C81882309F001C18A81282F30E0C9
:101130003E872D878D859E858130910509F44FC0AE
:101140002D853E85223031052CF48D859E850097B6
:1011500071F0EDC02D853E852230310509F477C050
:101160008D859E858330910509F4A9C0E0C08C81EE
:10117000282F30E03C872B878B859C850097D1F00A
:101180002B853C852130310509F0D1C0AAE3B0E0C0
:10119000EAE3F0E08081482F8B81282F30E081E066
:1011A00090E0022E02C0880F991F0A94E2F7842B68
:1011B0008C93BDC0AAE3B0E0EAE3F0E08081482F61
:1011C0008B81282F30E081E090E0022E02C0880F52
:1011D000991F0A94E2F7809584238C93A8C08C8190
:1011E000282F30E03A87298789859A850097D1F0A2
:1011F00029853A852130310509F099C0A7E3B0E08F
:10120000E7E3F0E08081482F8B81282F30E081E0F8
:1012100090E0022E02C0880F991F0A94E2F7842BF7
:101220008C9385C0A7E3B0E0E7E3F0E08081482F2E
:101230008B81282F30E081E090E0022E02C0880FE1
:10124000991F0A94E2F7809584238C9370C08C8157
:10125000282F30E038872F838F8198850097D1F031
:101260002F8138852130310509F061C0A4E3B0E059
:10127000E4E3F0E08081482F8B81282F30E081E08B
:1012800090E0022E02C0880F991F0A94E2F7842B87
:101290008C934DC0A4E3B0E0E4E3F0E08081482FFC
:1012A0008B81282F30E081E090E0022E02C0880F71
:1012B000991F0A94E2F7809584238C9338C08C811F
:1012C000282F30E03E832D838D819E810097C9F0C9
:1012D0002D813E812130310551F5A1E3B0E0E1E3FC
:1012E000F0E08081482F8B81282F30E081E090E072
:1012F000022E02C0880F991F0A94E2F7842B8C9368
:1013000016C0A1E3B0E0E1E3F0E08081482F8B81DB
:10131000282F30E081E090E0022E02C0880F991F54
:101320000A94E2F7809584238C9301C01982898105
:101330002E960FB6F894DEBF0FBECDBFCF91DF91D2
:101340000895DF93CF93CDB7DEB72E970FB6F894FD
:10135000DEBF0FBECDBF8A836B834C8381E0898360
:101360008B81883008F008C18A81282F30E03E87C1
:101370002D878D859E858130910509F450C02D857E
:101380003E85223031052CF48D859E85009771F0C5
:10139000F1C02D853E852230310509F479C08D8557
:1013A0009E858330910509F4ACC0E4C08C81282F60
:1013B00030E03C872B878B859C850097C9F02B8577
:1013C0003C852130310549F5ABE3B0E0EBE3F0E0DB
:1013D0008081482F8B81282F30E081E090E0022E21
:1013E00002C0880F991F0A94E2F7842B8C93C5C022
:1013F000ABE3B0E0EBE3F0E08081482F8B81282F56
:1014000030E081E090E0022E02C0880F991F0A941C
:10141000E2F7809584238C93B0C01982AEC08C8192
:10142000282F30E03A87298789859A850097C9F067
:1014300029853A852130310549F5A8E3B0E0E8E394
:10144000F0E08081482F8B81282F30E081E090E010
:10145000022E02C0880F991F0A94E2F7842B8C9306
:101460008CC0A8E3B0E0E8E3F0E08081482F8B81F6
:10147000282F30E081E090E0022E02C0880F991FF3
:101480000A94E2F7809584238C9377C0198275C003
:101490008C81282F30E038872F838F8198850097A3
:1014A000C9F02F8138852130310549F5A5E3B0E039
:1014B000E5E3F0E08081482F8B81282F30E081E048
:1014C00090E0022E02C0880F991F0A94E2F7842B45
:1014D0008C9353C0A5E3B0E0E5E3F0E08081482FB2
:1014E0008B81282F30E081E090E0022E02C0880F2F
:1014F000991F0A94E2F7809584238C933EC0198249
:101500003CC08C81282F30E03E832D838D819E81CD
:101510000097C9F02D813E812130310549F5A2E3C4
:10152000B0E0E2E3F0E08081482F8B81282F30E0AB
:1015300081E090E0022E02C0880F991F0A94E2F722
:10154000842B8C931AC0A2E3B0E0E2E3F0E0808148
:10155000482F8B81282F30E081E090E0022E02C0DE
:10156000880F991F0A94E2F7809584238C9305C015
:10157000198203C0198201C0198289812E960FB683
:10158000F894DEBF0FBECDBFCF91DF910895DF93FA
:10159000CF93CDB7DEB728970FB6F894DEBF0FBE56
:1015A000CDBF8B836C835E834D8381E08A838B8187
:1015B000282F30E038872F834F81588541305105DF
:1015C00059F18F8198858230910534F42F813885C7
:1015D0002115310569F05CC04F81588542305105B5
:1015E00079F18F8198858330910509F43DC050C011
:1015F000E9E3F0E08081282F30E08C81882F90E0B3
:10160000A90102C0559547958A95E2F7CA018170F4
:10161000ED81FE8180833DC0E6E3F0E08081282FEC
:1016200030E08C81882F90E0A90102C05595479544
:101630008A95E2F7CA018170ED81FE81808329C01D
:10164000E3E3F0E08081282F30E08C81882F90E068
:10165000A90102C0559547958A95E2F7CA018170A4
:10166000ED81FE81808315C0E0E3F0E08081282FCA
:1016700030E08C81882F90E0A90102C055954795F4
:101680008A95E2F7CA018170ED81FE81808301C0F5
:101690001A828A8128960FB6F894DEBF0FBECDBF9E
:1016A000CF91DF910895DF93CF93CDB7DEB72D971C
:1016B0000FB6F894DEBF0FBECDBF8A836B8381E087
:1016C00089838B81813021F08B81882309F07FC051
:1016D0008A81282F30E03D872C878C859D8581303D
:1016E000910571F12C853D85223031052CF48C85D6
:1016F0009D85009769F069C02C853D8522303105B4
:10170000B1F18C859D858330910509F447C05DC09A
:101710008B81282F30E03B872A878A859B8500971D
:1017200059F02A853B852130310509F051C0EAE3A3
:10173000F0E08FEF80834CC0EAE3F0E0108248C015
:101740008B81282F30E039872887888599850097F5
:1017500051F02885398521303105D1F5E7E3F0E0F6
:101760008FEF808335C0E7E3F0E0108231C08B81DA
:10177000282F30E03F832E838E819F81009751F088
:101780002E813F812130310519F5E4E3F0E08FEF40
:1017900080831EC0E4E3F0E010821AC08B81282F02
:1017A00030E03D832C838C819D81009751F02C810A
:1017B0003D812130310561F4E1E3F0E08FEF80837A
:1017C00007C0E1E3F0E0108203C0198201C0198272
:1017D00089812D960FB6F894DEBF0FBECDBFCF9195
:1017E000DF910895DF93CF9300D000D00F92CDB753
:1017F000DEB78A836B8381E089838A81282F30E07A
:101800003D832C838C819D8181309105D1F02C8189
:101810003D81223031052CF48C819D81009761F04F
:101820001FC02C813D812230310581F08C819D814A
:101830008330910581F014C0EBE3F0E08B8180836D
:1018400010C0E8E3F0E08B8180830BC0E5E3F0E0BB
:101850008B81808306C0E2E3F0E08B81808301C04E
:10186000198289810F900F900F900F900F90CF9158
:10187000DF910895DF93CF9300D000D000D0CDB793
:10188000DEB78A837C836B8381E089838B819C8133
:101890000097E9F18A81282F30E03E832D838D81E6
:1018A0009E8181309105E1F02D813E81223031050C
:1018B0002CF48D819E81009761F027C02D813E819F
:1018C00022303105A1F08D819E8183309105B1F0E8
:1018D0001CC0E9E3F0E08081EB81FC81808318C0CB
:1018E000E6E3F0E08081EB81FC81808311C0E3E3DB
:1018F000F0E08081EB81FC8180830AC0E0E3F0E0CE
:101900008081EB81FC81808303C0198201C0198230
:10191000898126960FB6F894DEBF0FBECDBFCF915A
:10192000DF910895DF93CF93CDB7DEB7A6E2B0E0A5
:10193000E6E2F0E080818E7F8C93A6E2B0E0E6E202
:10194000F0E080818D7F8C93A6E2B0E0E6E2F0E0EB
:10195000808184608C93A7E2B0E0E7E2F0E08081D0
:101960008E7F8C93A7E2B0E0E7E2F0E080818D7F8C
:101970008C93A7E2B0E0E7E2F0E080818B7F8C936C
:10198000A7E2B0E0E7E2F0E08081877F8C93A7E2F6
:10199000B0E0E7E2F0E080818F7E8C93A7E2B0E0D8
:1019A000E7E2F0E080818F7D8C93A7E2B0E0E7E290
:1019B000F0E0808180648C93A7E2B0E0E7E2F0E0A1
:1019C00080818F778C93A6E2B0E0E6E2F0E0808140
:1019D00080688C93CF91DF910895DF93CF9300D0EF
:1019E00000D00F92CDB7DEB78D83A7E2B0E0E7E27B
:1019F000F0E08081807E8C93A7E2B0E0E7E2F0E047
:101A00008081982F8D818770892B8C93A6E2B0E01E
:101A1000E6E2F0E0808180648C93E6E2F0E0808191
:101A20008295869586958370882F90E0817090705E
:101A3000882399F7E4E2F0E080818C83E5E2F0E02E
:101A400080818B838B81882F90E0382F22278C8197
:101A5000882F90E0822B932B9A83898389819A81A6
:101A6000CC01A0E0B0E0BC01CD010E94CD03DC01BF
:101A7000CB01BC01CD0120E030E040EA5BE30E94F5
:101A80001F02DC01CB01BC01CD010F900F900F9024
:101A90000F900F90CF91DF910895DF93CF93CDB743
:101AA000DEB72C970FB6F894DEBF0FBECDBF6987A7
:101AB0007A878B879C871D821E821F82188625C08D
:101AC00019821A821B821C820CC0000089819A81B3
:101AD000AB81BC810196A11DB11D89839A83AB8323
:101AE000BC8389819A81AB81BC81813E9105A1052E
:101AF000B10558F38D819E81AF81B8850196A11DF6
:101B0000B11D8D839E83AF83B8872D813E814F8128
:101B1000588589859A85AB85BC85281739074A077A
:101B20005B0770F22C960FB6F894DEBF0FBECDBFE8
:101B3000CF91DF910895DF93CF93CDB7DEB781E0EA
:101B400060E00E94F20BCF91DF910895DF93CF9375
:101B5000CDB7DEB72F970FB6F894DEBF0FBECDBF5F
:101B60008E876F8781E08D878F85882F90E0A0E03A
:101B7000B0E0072E7BE0880F991FAA1FBB1F7A9544
:101B8000D1F7702D20EA35E040E050E0BC01CD01F6
:101B90000E948A12DA01C90189879A87AB87BC87BC
:101BA0008E85882309F05FC01D821E821F821886E1
:101BB0004BC081E060E040E00E94A1096AE070E073
:101BC00080E090E00E944D0D81E060E041E00E94E5
:101BD000A10981E061E040E00E94A1096AE070E0B3
:101BE00080E090E00E944D0D81E061E041E00E94C4
:101BF000A10981E062E040E00E94A1096AE070E092
:101C000080E090E00E944D0D81E062E041E00E94A2
:101C1000A10981E063E040E00E94A1096AE070E070
:101C200080E090E00E944D0D81E063E041E00E9481
:101C3000A1098D819E81AF81B8850196A11DB11D3D
:101C40008D839E83AF83B8872D813E814F815885D8
:101C500089859A85AB85BC85281739074A075B07B4
:101C600008F4A7CF64C08E85813009F05FC0198267
:101C70001A821B821C824BC081E063E040E00E941C
:101C8000A1096AE070E080E090E00E944D0D81E0E3
:101C900063E041E00E94A10981E062E040E00E942F
:101CA000A1096AE070E080E090E00E944D0D81E0C3
:101CB00062E041E00E94A10981E061E040E00E9411
:101CC000A1096AE070E080E090E00E944D0D81E0A3
:101CD00061E041E00E94A10981E060E040E00E94F3
:101CE000A1096AE070E080E090E00E944D0D81E083
:101CF00060E041E00E94A10989819A81AB81BC81A9
:101D00000196A11DB11D89839A83AB83BC83298170
:101D10003A814B815C8189859A85AB85BC85281782
:101D200039074A075B0708F4A7CF01C01D8680E08A
:101D30002F960FB6F894DEBF0FBECDBFCF91DF91C7
:101D40000895DF93CF93CDB7DEB72F970FB6F894F2
:101D5000DEBF0FBECDBF8E876F8781E08D878F85F9
:101D6000882F90E0A0E0B0E089879A87AB87BC8796
:101D70008E85882309F05FC01D821E821F8218860F
:101D80004BC081E060E040E00E94A1096AE070E0A1
:101D900080E090E00E944D0D81E060E041E00E9413
:101DA000A10981E061E040E00E94A1096AE070E0E1
:101DB00080E090E00E944D0D81E061E041E00E94F2
:101DC000A10981E062E040E00E94A1096AE070E0C0
:101DD00080E090E00E944D0D81E062E041E00E94D1
:101DE000A10981E063E040E00E94A1096AE070E09F
:101DF00080E090E00E944D0D81E063E041E00E94B0
:101E0000A1098D819E81AF81B8850196A11DB11D6B
:101E10008D839E83AF83B8872D813E814F81588506
:101E200089859A85AB85BC85281739074A075B07E2
:101E300008F4A7CF64C08E85813009F05FC0198295
:101E40001A821B821C824BC081E063E040E00E944A
:101E5000A1096AE070E080E090E00E944D0D81E011
:101E600063E041E00E94A10981E062E040E00E945D
:101E7000A1096AE070E080E090E00E944D0D81E0F1
:101E800062E041E00E94A10981E061E040E00E943F
:101E9000A1096AE070E080E090E00E944D0D81E0D1
:101EA00061E041E00E94A10981E060E040E00E9421
:101EB000A1096AE070E080E090E00E944D0D81E0B1
:101EC00060E041E00E94A10989819A81AB81BC81D7
:101ED0000196A11DB11D89839A83AB83BC8329819F
:101EE0003A814B815C8189859A85AB85BC852817B1
:101EF00039074A075B0708F4A7CF01C01D8680E0B9
:101F00002F960FB6F894DEBF0FBECDBFCF91DF91F5
:101F10000895DF93CF93CDB7DEB7EAE3F0E0808199
:101F200061E00E94530BCF91DF910895DF93CF932F
:101F3000CDB7DEB780E067E040E00E94A109CF9115
:101F4000DF910895DF93CF93CDB7DEB780E067E0F0
:101F500041E00E94A109CF91DF910895DF93CF93D3
:101F600000D000D0CDB7DEB78C831B82198228C089
:101F70008C81282F30E08981482F50E0C901880FDB
:101F8000991F880F991F880F991F821B930B840F2D
:101F9000951FFC01EE58FE4F8081282F30E089818B
:101FA000882F90E0A90102C0440F551F8A95E2F7DF
:101FB000CA01982F8B81892B8B8389818F5F8983BD
:101FC00089818730A8F280E06B810E94F20B0F902C
:101FD0000F900F900F90CF91DF910895DF93CF93E3
:101FE0000F92CDB7DEB7898383E060E040E00E94C6
:101FF000A10983E062E040E00E94A10983E061E082
:1020000041E00E94A10981E069810E94F20B62E037
:1020100070E080E090E00E944D0D83E061E040E0E0
:102020000E94A1090F90CF91DF910895DF93CF9384
:10203000CDB7DEB783E060E041E00E94770883E03F
:1020400062E041E00E94770883E061E041E00E94A5
:10205000770881E06FEF0E94530B6CE370E080E043
:1020600090E00E944D0D8CE30E94EE0F62E070E064
:1020700080E090E00E944D0D8CE00E94EE0F62E047
:1020800070E080E090E00E944D0D81E00E94EE0F34
:1020900062E070E080E090E00E944D0D86E00E94DA
:1020A000EE0F62E070E080E090E00E944D0DCF9175
:1020B000DF910895DF93CF930F92CDB7DEB7898379
:1020C00083E060E041E00E94A10983E062E040E03B
:1020D0000E94A10983E061E041E00E94A10981E042
:1020E00069810E94F20B62E070E080E090E00E9463
:1020F0004D0D83E061E040E00E94A1090F90CF9177
:10210000DF910895DF93CF9300D0CDB7DEB78983F9
:102110006A838A81882F90E002960024969587959D
:102120000794969587950794982F802D982F8981ED
:10213000890F0E94EE0F0F900F90CF91DF910895BD
:10214000DF93CF9300D00F92CDB7DEB79B838A8306
:10215000198215C0EA81FB8180810E945A108A8110
:102160009B8101969B838A8389818F5F8983898183
:10217000803129F480E061E00E9482101982EA81B6
:10218000FB818081882331F70F900F900F90CF91C2
:10219000DF910895DF93CF9300D0CDB7DEB71A82D9
:1021A00008C082E06A8141E00E9477088A818F5FDF
:1021B0008A838A818430A8F384E0898308C082E01E
:1021C000698140E00E94770889818F5F89838981D6
:1021D0008830A8F382E06FEF0E94F20B0F900F900F
:1021E000CF91DF910895DF93CF93CDB7DEB72997D5
:1021F0000FB6F894DEBF0FBECDBF9F838E83688776
:1022000081E08C8319828E819F81009709F497C0A9
:10221000EE81FF818FEF808384E08B838BC08B8185
:10222000882F90E0FC01E852FE4F908182E0692FF8
:1022300040E00E94A1091A8267C08A81882F90E03D
:10224000FC01E452FE4F90819E012B5F3F4F82E0E4
:10225000692FA9010E94C70A8D81882309F051C006
:102260008A81882F90E0FC01E452FE4F90819E010C
:102270002B5F3F4F82E0692FA9010E94C70A0FC060
:102280008A81882F90E0FC01E452FE4F90819E01EC
:102290002B5F3F4F82E0692FA9010E94C70A8D8101
:1022A000882371F38885882399F08B81482F50E02B
:1022B0008A81282F30E0CA01880F991F880F991F43
:1022C000820F931FFC01E853FE4F8081898712C063
:1022D0008B81482F50E08A81282F30E0CA01880F77
:1022E000991F880F991F820F931FFC01E854FE4F1E
:1022F00080818987EE81FF818985808381E0898360
:1023000007C08A818F5F8A838A81843008F495CFE1
:102310008B81882F90E0FC01E852FE4F908182E093
:10232000692F41E00E94A1098981813049F08B81A8
:102330008F5F8B838B81843008F471CF01C01C8246
:102340008C8129960FB6F894DEBF0FBECDBFCF911A
:10235000DF910895DF93CF93CDB7DEB781E060E0E2
:102360000E94F20BCF91DF910895DF93CF9300D0BD
:1023700000D0CDB7DEB769837A838B839C8381E0FD
:1023800067E041E00E94A10989819A81AB81BC810B
:10239000BC01CD010E944D0D81E067E040E00E944C
:1023A000A1090F900F900F900F90CF91DF9108959A
:1023B000DF93CF93CDB7DEB7A1970FB6F894DEBF0A
:1023C0000FBECDBF0E945E080E9416100E94920CA4
:1023D0008BE28D8380E00E94ED0CDC01CB018E87C7
:1023E0009F87A88BB98B85E00E94ED0CDC01CB01A7
:1023F0008A879B87AC87BD876E857F858889998909
:102400002A853B854C855D850E94C101DC01CB019D
:102410008E839F83A887B9876E817F818885998500
:1024200020E030E040E050E00E94490388235CF463
:102430008DE28D838E819F81A885B985B0588E836A
:102440009F83A887B9876E817F81888599850E943F
:102450004900DC01CB019C838B838B819C81CC0167
:10246000A0E0B0E0BC01CD010E94CD039B01AC0116
:102470006E817F81888599850E94C101DC01CB0135
:10248000BC01CD0120E030E04AE754E40E941F0285
:10249000DC01CB01BC01CD010E944900DC01CB0174
:1024A0009A8389838D81282F30E08DB79EB70A9754
:1024B0000FB6F8949EBF0FBE8DBFEDB7FEB7319635
:1024C000CE0142969183808380E690E0938382835D
:1024D000358324838B819C819783868389819A812C
:1024E000918780870E94E3128DB79EB70A960FB638
:1024F000F8949EBF0FBE8DBF81E00E94EE0FCE010B
:1025000042960E94A01064E670E080E090E00E9495
:102510004D0D60CFA1E21A2EAA1BBB1BFD010DC001
:10252000AA1FBB1FEE1FFF1FA217B307E407F50783
:1025300020F0A21BB30BE40BF50B661F771F881F5F
:10254000991F1A9469F760957095809590959B01F5
:10255000AC01BD01CF0108952F923F924F925F923F
:102560006F927F928F929F92AF92BF92CF92DF92A3
:10257000EF92FF920F931F93CF93DF93CDB7DEB708
:10258000CA1BDB0B0FB6F894DEBF0FBECDBF09949C
:102590002A88398848885F846E847D848C849B84F3
:1025A000AA84B984C884DF80EE80FD800C811B8101
:1025B000AA81B981CE0FD11D0FB6F894DEBF0FBE30
:1025C000CDBFED010895AEE0B0E0E9EEF2E10C948C
:1025D000BA120D891E8986E08C831A8309838FEFD6
:1025E0009FE79E838D839E01275E3F4FCE0101961C
:1025F0006F89788DA9010E9407132F813885020FFA
:10260000131FF80110822E96E4E00C94D612ABE072
:10261000B0E0EDE0F3E10C94AC123C012B015A0167
:10262000FC0117821682838181FD03C06FEF7FEF6B
:10263000C6C19AE0892E1E010894211C311CF301A9
:102640002381F20123FD859123FF81912F018823AE
:1026500009F4B2C1853239F423FD859123FF8191BC
:102660002F01853229F490E0B3010E94FA14E7CFDC
:10267000982FFF24EE249924FFE1FF15D0F09B3220
:1026800069F09C3228F4903259F0933291F40EC0E4
:102690009D3249F0903369F441E024C052E0F52ABC
:1026A00084E0F82A28C098E0F92A25C0E0E1FE2A53
:1026B00022C0F7FC29C0892F80538A3070F4F6FEBF
:1026C00005C0989C902C1124980E15C0E89CE02C15
:1026D0001124E80EF0E2FF2A0EC09E3229F4F6FC27
:1026E0006BC140E4F42A07C09C3619F450E8F52A7F
:1026F00002C0983649F4F20123FD959123FF919190
:102700002F01992309F0B8CF892F8554833018F011
:102710008052833038F444E050E0A40EB51E5FE3ED
:1027200059830FC0933631F0933779F0933509F020
:1027300056C020C0F5018081898342E050E0A40E9C
:10274000B51E610101E010E012C0F501C080D1802A
:10275000F6FC03C06FEF7FEF02C0692D70E042E02E
:1027600050E0A40EB51EC6010E94EF148C015FE775
:10277000F52214C0F501C080D180F6FC03C06FEFD4
:102780007FEF02C0692D70E042E050E0A40EB51E5C
:10279000C6010E94E4148C0150E8F52AF3FE07C03C
:1027A0001AC080E290E0B3010E94FA14EA948E2DE0
:1027B00090E008171907A8F30EC0F601F7FC859101
:1027C000F7FE81916F0190E0B3010E94FA14E110CD
:1027D000EA94015010400115110579F7EAC09436CA
:1027E00011F0993669F5F7FE08C0F50120813181B5
:1027F0004281538184E090E00AC0F501808191819B
:102800009C01442737FD4095542F82E090E0A80EAC
:10281000B91E9FE6F92257FF09C0509540953095A3
:1028200021953F4F4F4F5F4FE0E8FE2ACA01B901A3
:10283000A1012AE030E00E942615D82ED21840C00F
:10284000953729F41F2D1F7E2AE030E01DC01F2D73
:10285000197F9F3661F0903720F4983509F0ACC0AD
:102860000FC0903739F0983709F0A6C004C028E0AF
:1028700030E00AC0106114FD146020E130E004C0B3
:1028800014FD166020E132E017FF08C0F5016081F9
:1028900071818281938144E050E008C0F50180811C
:1028A0009181BC0180E090E042E050E0A40EB51EB2
:1028B000A1010E942615D82ED2188FE7F82EF122FA
:1028C000F6FE0BC05EEFF522D91438F4F4FE07C013
:1028D000F2FC05C08FEEF82202C01D2D01C0192D9B
:1028E000F4FE0DC0FE01ED0DF11D8081803319F461
:1028F00099EEF92208C01F5FF2FE05C003C08F2DBC
:10290000867809F01F5F0F2DF3FC14C0F0FE0FC096
:102910001E1510F09D2C0BC09D2C9E0C911A1E2D87
:1029200006C080E290E0B3010E94FA141F5F1E15FA
:10293000C0F304C01E1510F4E11A01C0EE2404FF18
:102940000FC080E390E0B3010E94FA1402FF1DC0A3
:1029500001FD03C088E790E00EC088E590E00BC061
:10296000802F867891F001FF02C08BE201C080E2E7
:10297000F7FC8DE290E0B3010E94FA1406C080E3F8
:1029800090E0B3010E94FA149A94D914C0F3DA9437
:10299000F101ED0DF11D808190E0B3010E94FA1468
:1029A000DD20A9F706C080E290E0B3010E94FA148E
:1029B000EA94EE20C1F743CEF30166817781CB0123
:1029C0002B96E2E10C94C812FC0105906150704016
:1029D0000110D8F7809590958E0F9F1F0895FC01E8
:1029E0006150704001900110D8F7809590958E0F3E
:1029F0009F1F08950F931F93CF93DF938C01EB01DB
:102A00008B8181FF1BC082FF0DC02E813F818C8195
:102A10009D812817390764F4E881F9810193F983CE
:102A2000E88306C0E885F985802F0995892B31F464
:102A30008E819F8101969F838E8302C00FEF1FEFCF
:102A4000C801DF91CF911F910F910895FA01AA2734
:102A5000283051F1203181F1E8946F936E7F6E5FE1
:102A60007F4F8F4F9F4FAF4FB1E03ED0B4E03CD08F
:102A7000670F781F891F9A1FA11D680F791F8A1F72
:102A8000911DA11D6A0F711D811D911DA11D20D0D9
:102A900009F468943F912AE0269F11243019305D93
:102AA0003193DEF6CF010895462F4770405D419384
:102AB000B3E00FD0C9F7F6CF462F4F70405D4A33D1
:102AC00018F0495D31FD4052419302D0A9F7EACF99
:102AD000B4E0A6959795879577956795BA95C9F7C8
:102AE00000976105710508959B01AC010A2E0694BB
:102AF0005795479537952795BA95C9F7620F731F74
:0C2B0000841F951FA01D0895F894FFCFBE
:102B0C00256325752E25303375000000000000006C
:102B1C000000000102020303030304040404040480
:102B2C00040405050505050505050505050505054B
:102B3C00050506060606060606060606060606062B
:102B4C000606060606060606060606060606060619
:102B5C0006060707070707070707070707070707FB
:102B6C0007070707070707070707070707070707E9
:102B7C0007070707070707070707070707070707D9
:102B8C0007070707070707070707070707070707C9
:102B9C0007070808080808080808080808080808AB
:102BAC000808080808080808080808080808080899
:102BBC000808080808080808080808080808080889
:102BCC000808080808080808080808080808080879
:102BDC000808080808080808080808080808080869
:102BEC000808080808080808080808080808080859
:102BFC000808080808080808080808080808080849
:102C0C000808080808080808080808080808080838
:102C1C000808010101010101000001010000000090
:102C2C00010100010100010101010100000100018D
:102C3C00010000010101000101000101010001017D
:102C4C00010101010101000001000101010101016B
:102C5C0001010101010001013734312338353230D3
:102C6C003936333D2F2A2D2B4145494D42464A4E8C
:102C7C0043474B4F44484C500001020304050607E0
:00000001FF
