:100000000C942A000C94E2040C9415050C944805F9
:100010000C9447000C9447000C9447000C94470044
:100020000C9447000C9447000C9447000C94470034
:100030000C9447000C9447000C9447000C94470024
:100040000C9447000C9447000C9447000C94470014
:100050000C94470011241FBECFE5D8E0DEBFCDBF12
:1000600012E0A0E6B0E0EEEAF0E202C005900D92E8
:10007000A632B107D9F712E0A6E2B2E001C01D92A4
:10008000AC32B107E1F70E94E00E0C9455100C94CD
:100090000000A0E2B0E0EFE4F0E00C941E106983F1
:1000A0007A838B839C832D833E834F835887CE0135
:1000B0000196BE01675F7F4F0E94E002CE01059668
:1000C000BE016F5E7F4F0E94E0029985923088F0FA
:1000D00089898230C8F0943019F4823051F404C018
:1000E000843029F4923081F480EB90E0C6C09230E5
:1000F00049F420E09A858A89981321E02A87CE0165
:100100000996BBC0823049F420E09A858A89981309
:1001100021E02A8BCE014196B0C02D843E844F84CD
:1001200058886D887E888F88988CEE24FF248701FC
:10013000AA24BB24650140E050E060E070E0E0E00C
:10014000F0E0C10181709070892BE9F0E60CF71C9A
:10015000081D191D9A01AB012A0D3B1D4C1D5D1D8B
:1001600080E090E0A0E0B0E0E614F704080519058F
:1001700020F481E090E0A0E0B0E0BA01A901480FCE
:10018000591F6A1F7B1FAA0CBB1CCC1CDD1C97FED1
:1001900008C081E090E0A0E0B0E0A82AB92ACA2A0D
:1001A000DB2A3196E032F10549F0660C771C881C99
:1001B000991C5694479437942794C3CFFA85EA89BB
:1001C0002B893C898B859C85280F391F2E5F3F4FDB
:1001D00017C0CA0181709070892B61F01695079540
:1001E000F794E79480E090E0A0E0B0E8E82AF92AEC
:1001F0000A2B1B2B76956795579547952F5F3F4F99
:1002000077FDE7CF0CC0440F551F661F771F17FD02
:100210004160EE0CFF1C001F111F21503040403088
:1002200090E0590790E0690790E4790760F32B8F1D
:100230003C8FDB01CA018F779070A070B070803462
:100240009105A105B10561F447FD0AC0E114F1046F
:100250000105110529F0405C5F4F6F4F7F4F4078DB
:100260001A8EFE1711F081E08A8F4D8F5E8F6F8F8F
:1002700078A383E0898FCE0149960E940B02A09655
:10028000E2E10C943A10A8E0B0E0E9E4F1E00C946B
:1002900026107B018C01611571058105910519F40A
:1002A00082E0898360C083E089838EE1C82ED12CEF
:1002B000DC82CB82ED82FE820F831887C801B701F2
:1002C0000E94BC01FC013197F7FF3BC02227332776
:1002D0002E1B3F0B57016801022E04C0D694C79411
:1002E000B794A7940A94D2F740E050E060E070E041
:1002F00081E090E0A0E0B0E004C0880F991FAA1F41
:10030000BB1F2A95D2F70197A109B1098E219F2120
:10031000A023B1230097A105B10521F041E050E0F1
:1003200060E070E04A295B296C297D294D835E835A
:100330006F8378878EE190E08E1B9F0B9C838B836D
:1003400012C0309781F00E2E04C0EE0CFF1C001F6F
:10035000111F0A94D2F7ED82FE820F831887CE1AFE
:10036000DF0ADC82CB821A82CE0101960E940B0248
:100370002896EAE00C944210EF92FF920F931F939D
:100380007B018C0180E0E81680E0F80681E0080738
:1003900080E0180788F48FEFE816F10401051105D5
:1003A00031F028F088E090E0A0E0B0E017C080E0F5
:1003B00090E0A0E0B0E012C080E0E81680E0F8062F
:1003C00080E0080781E0180728F088E190E0A0E0CD
:1003D000B0E004C080E190E0A0E0B0E020E230E0D6
:1003E00040E050E0281B390B4A0B5B0B04C016950C
:1003F0000795F794E7948A95D2F7F701E854FF4FF1
:100400008081281B310941095109C9011F910F91B0
:10041000FF90EF900895DF92EF92FF920F931F935A
:10042000FC01E480F58006811781D18080818230D3
:1004300048F480E090E0A0E1B0E0E82AF92A0A2B35
:100440001B2BA5C0843009F49FC0823021F4EE2418
:10045000FF24870105C0E114F1040105110519F419
:10046000E0E0F0E096C0628173819FEF6238790727
:100470000CF05BC022E83FEF261B370B2A31310519
:100480002CF020E030E040E050E02AC0B801A701A5
:10049000022E04C076956795579547950A94D2F732
:1004A00081E090E0A0E0B0E004C0880F991FAA1F8F
:1004B000BB1F2A95D2F70197A109B1098E219F216F
:1004C000A023B1230097A105B10521F081E090E0C0
:1004D000A0E0B0E09A01AB01282B392B4A2B5B2B13
:1004E000DA01C9018F779070A070B07080349105E7
:1004F000A105B10539F427FF09C0205C3F4F4F4FDC
:100500005F4F04C0215C3F4F4F4F5F4FE0E0F0E092
:100510002030A0E03A07A0E04A07A0E45A0710F014
:10052000E1E0F0E079018A0127C06038710564F5E7
:10053000FB01E158FF4FD801C7018F779070A07081
:10054000B07080349105A105B10539F4E7FE0DC006
:1005500080E490E0A0E0B0E004C08FE390E0A0E091
:10056000B0E0E80EF91E0A1F1B1F17FF05C0169505
:100570000795F794E794319687E016950795F794D9
:10058000E7948A95D1F705C0EE24FF248701EFEFA9
:10059000F0E06E2F679566276795902F9F77D79429
:1005A000DD24D7948E2F8695492F462B582F5D2911
:1005B000B701CA011F910F91FF90EF90DF9008954E
:1005C000FC01DB01408151812281622F6F7770E055
:1005D000221F2227221F9381892F880F822B282FE9
:1005E00030E0991F9927991F11969C931197211517
:1005F0003105A9F5411551056105710511F482E038
:1006000037C082E89FEF13969C938E9312979A01BE
:10061000AB0167E0220F331F441F551F6A95D1F7C6
:1006200083E08C930DC0220F331F441F551F129679
:100630008D919C911397019713969C938E9312978B
:10064000203080E0380780E0480780E4580758F3FE
:1006500014962D933D934D935C93179708952F3FD8
:10066000310579F4411551056105710519F484E0EE
:100670008C93089564FF03C081E08C9312C01C9298
:1006800010C02F57304013963C932E93129783E05F
:100690008C9387E0440F551F661F771F8A95D1F70B
:1006A000706414964D935D936D937C9317970895A2
:1006B000DF93CF93CDB7DEB7CF91DF910895DF936E
:1006C000CF93CDB7DEB7AFE5B0E0EFE5F0E08081E6
:1006D00080688C93CF91DF910895DF93CF93CDB74E
:1006E000DEB7AFE5B0E0EFE5F0E080818F778C9387
:1006F000CF91DF910895DF93CF93CDB7DEB72A97DF
:100700000FB6F894DEBF0FBECDBF89836A8389819F
:10071000282F30E03A87298789859A85813091058D
:1007200009F46DC029853A852230310509F4C9C024
:1007300089859A85009709F0EAC08A81282F30E0E0
:1007400038872F838F8198858130910521F12F8102
:100750003885223031052CF48F819885009761F01F
:1007600046C02F8138852230310521F18F8198854F
:100770008330910571F13BC0A5E5B0E0E5E5F0E01F
:1007800080818E7F8C93A5E5B0E0E5E5F0E0808187
:100790008D7F8C932CC0A5E5B0E0E5E5F0E080818D
:1007A00081608C93A5E5B0E0E5E5F0E080818D7F88
:1007B0008C931DC0A5E5B0E0E5E5F0E080818E7F7B
:1007C0008C93A5E5B0E0E5E5F0E0808182608C9354
:1007D0000EC0A5E5B0E0E5E5F0E0808181608C9396
:1007E000A5E5B0E0E5E5F0E0808182608C93ABE5C3
:1007F000B0E0EBE5F0E0808180648C9388C08A8172
:10080000282F30E03E832D838D819E81813091059C
:1008100021F12D813E81223031052CF48D819E8184
:10082000009761F046C02D813E812230310521F1D3
:100830008D819E818330910571F13BC0A5E5B0E0CB
:10084000E5E5F0E080818E7F8C93A5E5B0E0E5E5FD
:10085000F0E080818D7F8C932CC0A5E5B0E0E5E5CC
:10086000F0E0808181608C93A5E5B0E0E5E5F0E003
:1008700080818D7F8C931DC0A5E5B0E0E5E5F0E0BB
:1008800080818E7F8C93A5E5B0E0E5E5F0E0808186
:1008900082608C930EC0A5E5B0E0E5E5F0E08081D4
:1008A00081608C93A5E5B0E0E5E5F0E080818260B1
:1008B0008C93ABE5B0E0EBE5F0E0808180688C9351
:1008C00026C08A81282F30E03C832B838B819C813A
:1008D0008230910531F02B813C812330310549F084
:1008E0000FC0A4E5B0E0E4E5F0E080818F7B8C935D
:1008F00007C0A4E5B0E0E4E5F0E0808180648C937B
:10090000ABE5B0E0EBE5F0E0808180628C932A9665
:100910000FB6F894DEBF0FBECDBFCF91DF91089523
:10092000DF93CF9300D00F92CDB7DEB78983898153
:10093000282F30E03B832A838A819B818130910577
:1009400089F02A813B8122303105A1F08A819B8187
:100950000097B9F4ABE5B0E0EBE5F0E080818F7B88
:100960008C930FC0ABE5B0E0EBE5F0E080818F77D2
:100970008C9307C0ABE5B0E0EBE5F0E080818F7DC4
:100980008C930F900F900F90CF91DF910895DF938C
:10099000CF9300D00F92CDB7DEB79A8389836B8354
:1009A0008B81882F90E0880F991FFC01EA5DFD4F35
:1009B00089819A81918380830F900F900F90CF91BE
:1009C000DF9108951F920F920FB60F9211242F936B
:1009D0003F934F935F936F937F938F939F93AF93C7
:1009E000BF93EF93FF93DF93CF93CDB7DEB78091A3
:1009F000260290912702009729F0E0912602F091BB
:100A000027020995CF91DF91FF91EF91BF91AF91AF
:100A10009F918F917F916F915F914F913F912F9116
:100A20000F900FBE0F901F9018951F920F920FB648
:100A30000F9211242F933F934F935F936F937F9364
:100A40008F939F93AF93BF93EF93FF93DF93CF93D6
:100A5000CDB7DEB78091280290912902009729F046
:100A6000E0912802F09129020995CF91DF91FF9141
:100A7000EF91BF91AF919F918F917F916F915F9116
:100A80004F913F912F910F900FBE0F901F9018958F
:100A90001F920F920FB60F9211242F933F934F93F3
:100AA0005F936F937F938F939F93AF93BF93EF93D6
:100AB000FF93DF93CF93CDB7DEB780912A02909159
:100AC0002B02009729F0E0912A02F0912B02099560
:100AD000CF91DF91FF91EF91BF91AF919F918F9156
:100AE0007F916F915F914F913F912F910F900FBE2A
:100AF0000F901F901895DF93CF93CDB7DEB780E0AE
:100B000061E00E94660881E061E00E946608CF9182
:100B1000DF910895DF93CF93CDB7DEB72E970FB651
:100B2000F894DEBF0FBECDBF8A836B834C8381E018
:100B300089838A81843008F00CC18B81883008F069
:100B400008C18C81813021F08C81882309F001C19A
:100B50008A81282F30E03E872D878D859E858130C4
:100B6000910509F44FC02D853E85223031052CF4C6
:100B70008D859E85009771F0EDC02D853E852230D4
:100B8000310509F477C08D859E858330910509F480
:100B9000A9C0E0C08C81282F30E03C872B878B8553
:100BA0009C850097D1F02B853C852130310509F0DB
:100BB000D1C0AAE3B0E0EAE3F0E08081482F8B8166
:100BC000282F30E081E090E0022E02C0880F991FAC
:100BD0000A94E2F7842B8C93BDC0AAE3B0E0EAE369
:100BE000F0E08081482F8B81282F30E081E090E079
:100BF000022E02C0880F991F0A94E2F78095842381
:100C00008C93A8C08C81282F30E03A87298789856A
:100C10009A850097D1F029853A852130310509F070
:100C200099C0A7E3B0E0E7E3F0E08081482F8B8133
:100C3000282F30E081E090E0022E02C0880F991F3B
:100C40000A94E2F7842B8C9385C0A7E3B0E0E7E336
:100C5000F0E08081482F8B81282F30E081E090E008
:100C6000022E02C0880F991F0A94E2F78095842310
:100C70008C9370C08C81282F30E038872F838F8130
:100C800098850097D1F02F8138852130310509F002
:100C900061C0A4E3B0E0E4E3F0E08081482F8B8101
:100CA000282F30E081E090E0022E02C0880F991FCB
:100CB0000A94E2F7842B8C934DC0A4E3B0E0E4E304
:100CC000F0E08081482F8B81282F30E081E090E098
:100CD000022E02C0880F991F0A94E2F780958423A0
:100CE0008C9338C08C81282F30E03E832D838D81FA
:100CF0009E810097C9F02D813E812130310551F54B
:100D0000A1E3B0E0E1E3F0E08081482F8B81282F60
:100D100030E081E090E0022E02C0880F991F0A9413
:100D2000E2F7842B8C9316C0A1E3B0E0E1E3F0E09E
:100D30008081482F8B81282F30E081E090E0022EC7
:100D400002C0880F991F0A94E2F7809584238C9340
:100D500001C0198289812E960FB6F894DEBF0FBEAE
:100D6000CDBFCF91DF910895DF93CF93CDB7DEB79D
:100D70002E970FB6F894DEBF0FBECDBF8A836B836C
:100D80004C8381E089838B81883008F008C18A8197
:100D9000282F30E03E872D878D859E8581309105F7
:100DA00009F450C02D853E85223031052CF48D8507
:100DB0009E85009771F0F1C02D853E85223031056A
:100DC00009F479C08D859E858330910509F4ACC006
:100DD000E4C08C81282F30E03C872B878B859C8555
:100DE0000097C9F02B853C852130310549F5ABE3EF
:100DF000B0E0EBE3F0E08081482F8B81282F30E0DA
:100E000081E090E0022E02C0880F991F0A94E2F759
:100E1000842B8C93C5C0ABE3B0E0EBE3F0E08081C2
:100E2000482F8B81282F30E081E090E0022E02C015
:100E3000880F991F0A94E2F7809584238C93B0C0A1
:100E40001982AEC08C81282F30E03A8729878985A6
:100E50009A850097C9F029853A852130310549F5F1
:100E6000A8E3B0E0E8E3F0E08081482F8B81282FF1
:100E700030E081E090E0022E02C0880F991F0A94B2
:100E8000E2F7842B8C938CC0A8E3B0E0E8E3F0E0B9
:100E90008081482F8B81282F30E081E090E0022E66
:100EA00002C0880F991F0A94E2F7809584238C93DF
:100EB00077C0198275C08C81282F30E038872F8346
:100EC0008F8198850097C9F02F81388521303105B1
:100ED00049F5A5E3B0E0E5E3F0E08081482F8B81A0
:100EE000282F30E081E090E0022E02C0880F991F89
:100EF0000A94E2F7842B8C9353C0A5E3B0E0E5E3BA
:100F0000F0E08081482F8B81282F30E081E090E055
:100F1000022E02C0880F991F0A94E2F7809584235D
:100F20008C933EC019823CC08C81282F30E03E83D8
:100F30002D838D819E810097C9F02D813E812130C6
:100F4000310549F5A2E3B0E0E2E3F0E08081482F0B
:100F50008B81282F30E081E090E0022E02C0880FC4
:100F6000991F0A94E2F7842B8C931AC0A2E3B0E095
:100F7000E2E3F0E08081482F8B81282F30E081E090
:100F800090E0022E02C0880F991F0A94E2F7809524
:100F900084238C9305C0198203C0198201C0198271
:100FA00089812E960FB6F894DEBF0FBECDBFCF91CC
:100FB000DF910895DF93CF93CDB7DEB728970FB6B3
:100FC000F894DEBF0FBECDBF8B836C835E834D83F1
:100FD00081E08A838B81282F30E038872F834F81EF
:100FE00058854130510559F18F819885823091059E
:100FF00034F42F8138852115310569F05CC04F81AB
:1010000058854230510579F18F819885833091055B
:1010100009F43DC050C0E9E3F0E08081282F30E0C2
:101020008C81882F90E0A90102C0559547958A953B
:10103000E2F7CA018170ED81FE8180833DC0E6E365
:10104000F0E08081282F30E08C81882F90E0A9018A
:1010500002C0559547958A95E2F7CA018170ED81E6
:10106000FE81808329C0E3E3F0E08081282F30E017
:101070008C81882F90E0A90102C0559547958A95EB
:10108000E2F7CA018170ED81FE81808315C0E0E343
:10109000F0E08081282F30E08C81882F90E0A9013A
:1010A00002C0559547958A95E2F7CA018170ED8196
:1010B000FE81808301C01A828A8128960FB6F89437
:1010C000DEBF0FBECDBFCF91DF910895DF93CF93E9
:1010D000CDB7DEB72D970FB6F894DEBF0FBECDBFEC
:1010E0008A836B8381E089838B81813021F08B81BE
:1010F000882309F07FC08A81282F30E03D872C8724
:101100008C859D858130910571F12C853D8522303E
:1011100031052CF48C859D85009769F069C02C857C
:101120003D8522303105B1F18C859D858330910557
:1011300009F447C05DC08B81282F30E03B872A87A8
:101140008A859B85009759F02A853B85213031059A
:1011500009F051C0EAE3F0E08FEF80834CC0EAE38E
:10116000F0E0108248C08B81282F30E03987288733
:1011700088859985009751F028853985213031057A
:10118000D1F5E7E3F0E08FEF808335C0E7E3F0E0EF
:10119000108231C08B81282F30E03F832E838E81D7
:1011A0009F81009751F02E813F812130310519F543
:1011B000E4E3F0E08FEF80831EC0E4E3F0E0108210
:1011C0001AC08B81282F30E03D832C838C819D8138
:1011D000009751F02C813D812130310561F4E1E32C
:1011E000F0E08FEF808307C0E1E3F0E0108203C0FE
:1011F000198201C0198289812D960FB6F894DEBF3D
:101200000FBECDBFCF91DF910895DF93CF9300D074
:1012100000D00F92CDB7DEB78A836B8381E08983DC
:101220008A81282F30E03D832C838C819D81813001
:101230009105D1F02C813D81223031052CF48C8137
:101240009D81009761F01FC02C813D8122303105C6
:1012500081F08C819D818330910581F014C0EBE396
:10126000F0E08B81808310C0E8E3F0E08B81808325
:101270000BC0E5E3F0E08B81808306C0E2E3F0E0A1
:101280008B81808301C0198289810F900F900F900C
:101290000F900F90CF91DF910895DF93CF9300D0FF
:1012A00000D000D0CDB7DEB78A837C836B8381E02A
:1012B00089838B819C810097E9F18A81282F30E016
:1012C0003E832D838D819E8181309105E1F02D81BA
:1012D0003E81223031052CF48D819E81009761F092
:1012E00027C02D813E8122303105A1F08D819E8164
:1012F00083309105B1F01CC0E9E3F0E08081EB811F
:10130000FC81808318C0E6E3F0E08081EB81FC8102
:10131000808311C0E3E3F0E08081EB81FC81808376
:101320000AC0E0E3F0E08081EB81FC81808303C0B0
:10133000198201C01982898126960FB6F894DEBF02
:101340000FBECDBFCF91DF910895DF93CF93CDB77F
:10135000DEB7A6E2B0E0E6E2F0E080818E7F8C931B
:10136000A6E2B0E0E6E2F0E080818D7F8C93A6E219
:10137000B0E0E6E2F0E0808184608C93A7E2B0E028
:10138000E7E2F0E080818E7F8C93A7E2B0E0E7E2B5
:10139000F0E080818D7F8C93A7E2B0E0E7E2F0E09F
:1013A00080818B7F8C93A7E2B0E0E7E2F0E0808160
:1013B000877F8C93A7E2B0E0E7E2F0E080818F7E48
:1013C0008C93A7E2B0E0E7E2F0E080818F7D8C9320
:1013D000A7E2B0E0E7E2F0E0808180648C93A7E2CE
:1013E000B0E0E7E2F0E080818F778C93A6E2B0E096
:1013F000E6E2F0E0808180688C93CF91DF910895E0
:10140000DF93CF9300D000D00F92CDB7DEB78D839E
:10141000A7E2B0E0E7E2F0E08081807E8C93A7E273
:10142000B0E0E7E2F0E08081982F8D818770892B12
:101430008C93A6E2B0E0E6E2F0E0808180648C93D9
:10144000E6E2F0E080818295869586958370882F0C
:1014500090E081709070882399F7E4E2F0E0808159
:101460008C83E5E2F0E080818B838B81882F90E094
:10147000382F22278C81882F90E0822B932B9A8300
:10148000898389819A81CC01A0E0B0E0BC01CD01C3
:101490000E944301DC01CB01BC01CD0120E030E022
:1014A00040EA5BE30E944900DC01CB01BC01CD01B5
:1014B0000F900F900F900F900F90CF91DF910895A4
:1014C000DF93CF93CDB7DEB72C970FB6F894DEBF7E
:1014D0000FBECDBF69877A878B879C871D821E824E
:1014E0001F82188625C019821A821B821C820CC09A
:1014F000000089819A81AB81BC810196A11DB11D3B
:1015000089839A83AB83BC8389819A81AB81BC81B7
:10151000813E9105A105B10558F38D819E81AF8172
:10152000B8850196A11DB11D8D839E83AF83B887B9
:101530002D813E814F81588589859A85AB85BC85F3
:10154000281739074A075B0770F22C960FB6F894F4
:10155000DEBF0FBECDBFCF91DF910895DF93CF9354
:10156000CDB7DEB781E06FE00E940509CF91DF9132
:101570000895DF93CF93CDB7DEB72F970FB6F894CA
:10158000DEBF0FBECDBF8E876F8781E08D878F85D1
:10159000882F90E0A0E0B0E0072E7BE0880F991F35
:1015A000AA1FBB1F7A95D1F7702D20EA35E040E0E5
:1015B00050E0BC01CD010E94FC0FDA01C90189870E
:1015C0009A87AB87BC878E85882309F05FC01D8210
:1015D0001E821F8218864BC081E060E040E00E94BE
:1015E000B4066AE070E080E090E00E94600A81E06A
:1015F00060E041E00E94B40681E061E040E00E94CA
:10160000B4066AE070E080E090E00E94600A81E049
:1016100061E041E00E94B40681E062E040E00E94A7
:10162000B4066AE070E080E090E00E94600A81E029
:1016300062E041E00E94B40681E063E040E00E9485
:10164000B4066AE070E080E090E00E94600A81E009
:1016500063E041E00E94B4068D819E81AF81B88530
:101660000196A11DB11D8D839E83AF83B8872D8107
:101670003E814F81588589859A85AB85BC85281721
:1016800039074A075B0708F4A7CF64C08E8581300D
:1016900009F05FC019821A821B821C824BC081E054
:1016A00063E040E00E94B4066AE070E080E090E011
:1016B0000E94600A81E063E041E00E94B40681E09C
:1016C00062E040E00E94B4066AE070E080E090E0F2
:1016D0000E94600A81E062E041E00E94B40681E07D
:1016E00061E040E00E94B4066AE070E080E090E0D3
:1016F0000E94600A81E061E041E00E94B40681E05E
:1017000060E040E00E94B4066AE070E080E090E0B3
:101710000E94600A81E060E041E00E94B406898195
:101720009A81AB81BC810196A11DB11D89839A83E9
:10173000AB83BC8329813A814B815C8189859A8501
:10174000AB85BC85281739074A075B0708F4A7CF84
:1017500001C01D8680E02F960FB6F894DEBF0FBE45
:10176000CDBFCF91DF910895DF93CF93CDB7DEB793
:101770002F970FB6F894DEBF0FBECDBF8E876F8751
:1017800081E08D878F85882F90E0A0E0B0E0898789
:101790009A87AB87BC878E85882309F05FC01D823E
:1017A0001E821F8218864BC081E060E040E00E94EC
:1017B000B4066AE070E080E090E00E94600A81E098
:1017C00060E041E00E94B40681E061E040E00E94F8
:1017D000B4066AE070E080E090E00E94600A81E078
:1017E00061E041E00E94B40681E062E040E00E94D6
:1017F000B4066AE070E080E090E00E94600A81E058
:1018000062E041E00E94B40681E063E040E00E94B3
:10181000B4066AE070E080E090E00E94600A81E037
:1018200063E041E00E94B4068D819E81AF81B8855E
:101830000196A11DB11D8D839E83AF83B8872D8135
:101840003E814F81588589859A85AB85BC8528174F
:1018500039074A075B0708F4A7CF64C08E8581303B
:1018600009F05FC019821A821B821C824BC081E082
:1018700063E040E00E94B4066AE070E080E090E03F
:101880000E94600A81E063E041E00E94B40681E0CA
:1018900062E040E00E94B4066AE070E080E090E020
:1018A0000E94600A81E062E041E00E94B40681E0AB
:1018B00061E040E00E94B4066AE070E080E090E001
:1018C0000E94600A81E061E041E00E94B40681E08C
:1018D00060E040E00E94B4066AE070E080E090E0E2
:1018E0000E94600A81E060E041E00E94B4068981C4
:1018F0009A81AB81BC810196A11DB11D89839A8318
:10190000AB83BC8329813A814B815C8189859A852F
:10191000AB85BC85281739074A075B0708F4A7CFB2
:1019200001C01D8680E02F960FB6F894DEBF0FBE73
:10193000CDBFCF91DF910895DF93CF93CDB7DEB7C1
:10194000EAE3F0E0808161E00E946608CF91DF91D8
:101950000895DF93CF93CDB7DEB780E067E040E036
:101960000E94B406CF91DF910895DF93CF93CDB756
:10197000DEB780E067E041E00E94B406CF91DF91DE
:101980000895DF93CF9300D000D0CDB7DEB78C831E
:101990001B82198228C08C81282F30E08981482F32
:1019A00050E0C901880F991F880F991F880F991F50
:1019B000821B930B840F951FFC01E854FE4F80811E
:1019C000282F30E08981882F90E0A90102C0440FC0
:1019D000551F8A95E2F7CA01982F8B81892B8B833B
:1019E00089818F5F898389818730A8F280E06B814C
:1019F0000E9405090F900F900F900F90CF91DF91EB
:101A00000895DF93CF930F92CDB7DEB7898383E03C
:101A100060E040E00E94B40683E062E040E00E94A3
:101A2000B40683E061E041E00E94B40680E0698191
:101A30000E94050962E070E080E090E00E94600A88
:101A400083E061E040E00E94B4060F90CF91DF9107
:101A50000895DF93CF93CDB7DEB783E060E041E038
:101A60000E948A0583E062E041E00E948A0583E0EB
:101A700061E041E00E948A0580E06FEF0E94660805
:101A80006CE370E080E090E00E94600A8CE30E94CA
:101A9000010D62E070E080E090E00E94600A8CE05E
:101AA0000E94010D62E070E080E090E00E94600A18
:101AB00081E00E94010D62E070E080E090E00E9411
:101AC000600A86E00E94010D62E070E080E090E034
:101AD0000E94600ACF91DF910895DF93CF930F9218
:101AE000CDB7DEB7898383E060E041E00E94B406B1
:101AF00083E062E040E00E94B40683E061E041E000
:101B00000E94B40680E069810E94050962E070E0ED
:101B100080E090E00E94600A83E061E040E00E9483
:101B2000B4060F90CF91DF910895DF93CF9300D04B
:101B3000CDB7DEB789836A838A81882F90E00296C9
:101B40000024969587950794969587950794982FE6
:101B5000802D982F8981890F0E94010D0F900F9081
:101B6000CF91DF910895DF93CF9300D00F92CDB73F
:101B7000DEB79B838A83198215C0EA81FB8180814D
:101B80000E946D0D8A819B8101969B838A83898146
:101B90008F5F89838981803129F480E061E00E9430
:101BA000950D1982EA81FB818081882331F70F909E
:101BB0000F900F90CF91DF910895DF93CF9300D0D6
:101BC000CDB7DEB71A8208C082E06A8141E00E9488
:101BD0008A058A818F5F8A838A818430A8F384E0B2
:101BE000898308C082E0698140E00E948A0589817A
:101BF0008F5F898389818830A8F382E06FEF0E942C
:101C000005090F900F90CF91DF910895DF93CF9347
:101C1000CDB7DEB729970FB6F894DEBF0FBECDBFA4
:101C20009F838E83688781E08C8319828E819F8158
:101C3000009709F496C0EE81FF818FEF80831B82AD
:101C40008BC08B81882F90E0FC01E25EFD4F90817C
:101C500082E0692F40E00E94B4061A8267C08A8140
:101C6000882F90E0FC01EE5DFD4F90819E012B5F7F
:101C70003F4F82E0692FA9010E94DA078D818823F6
:101C800009F051C08A81882F90E0FC01EE5DFD4F84
:101C900090819E012B5F3F4F82E0692FA9010E9436
:101CA000DA070FC08A81882F90E0FC01EE5DFD4FBE
:101CB00090819E012B5F3F4F82E0692FA9010E9416
:101CC000DA078D81882371F38885882399F08B81C9
:101CD000482F50E08A81282F30E0CA01880F991FD1
:101CE000880F991F820F931FFC01E25FFD4F8081D7
:101CF000898712C08B81482F50E08A81282F30E0DD
:101D0000CA01880F991F880F991F820F931FFC012A
:101D1000E250FE4F80818987EE81FF818985808333
:101D200081E0898307C08A818F5F8A838A818430BA
:101D300008F495CF8B81882F90E0FC01E25EFD4F87
:101D4000908182E0692F41E00E94B4068981813050
:101D500049F08B818F5F8B838B81843008F471CF46
:101D600001C01C828C8129960FB6F894DEBF0FBE8D
:101D7000CDBFCF91DF910895DF93CF93CDB7DEB77D
:101D800081E067E040E00E94B406CF91DF910895C2
:101D9000DF93CF93CDB7DEB781E067E041E00E94EB
:101DA000B406CF91DF910895DF93CF93CDB7DEB71F
:101DB00081E067E040E00E94B406CF91DF91089592
:101DC000DF93CF93CDB7DEB729970FB6F894DEBF78
:101DD0000FBECDBF0E947B050E94290D0E94DD0D24
:101DE0000E94BC0E0E94AE0A1D821E821F821886AF
:101DF0001C821B821A82198289818823A9F481E0BE
:101E00000E94010D80E690E00E94B30D80E061E049
:101E10000E94950D8BE690E00E94B30D80E060E09B
:101E20000E94950D81E08983CE01099660E00E94B1
:101E3000060E89858F3F01F38985813381F51A82EA
:101E400081E00E94010D85E790E00E94B30D80E0E3
:101E500061E00E94950D8BE790E00E94B30D80E059
:101E600060E00E94950DCE01099660E00E94060E8A
:101E700089858F3FC1F38985813329F40E94C80E7B
:101E800081E08A8307C08985823369F70E94D40E76
:101E900081E08A838A81882309F08DC0D0CF89852B
:101EA000823309F088C01D821E821F8218861B8221
:101EB00081E00E94010D81E890E00E94B30D80E076
:101EC00061E00E94950D88E890E00E94B30D80E0EB
:101ED00060E00E94950DCE01099660E00E94060E1A
:101EE00089858F3FC1F38B81882319F481E00E949B
:101EF000010D89858A3229F18D819E81AF81B88556
:101F00002AE030E040E050E0BC01CD010E94DD0F4E
:101F10009B01AC018985882F90E0C097AA2797FD87
:101F2000A095BA2F820F931FA41FB51F8D839E8388
:101F3000AF83B88789850E946D0D8B818F5F8B83FE
:101F4000CACF89858A3219F48B818823A1F181E077
:101F50000E94010D83E990E00E94B30D80E061E0F2
:101F60000E94950D8EE990E00E94B30D80E060E044
:101F70000E94950DCE01099660E00E94060E8985AB
:101F80008F3FC1F381E00E94010D89850E946D0D94
:101F900089851C82813311F081E08C839D818C8145
:101FA000692F0E94B40B81E00E94010D87EA90E046
:101FB0000E94B30D78CF19821FCF629FD001739F0B
:101FC000F001829FE00DF11D649FE00DF11D929FD5
:101FD000F00D839FF00D749FF00D659FF00D992714
:101FE000729FB00DE11DF91F639FB00DE11DF91F38
:101FF000BD01CF0111240895A1E21A2EAA1BBB1B1B
:10200000FD010DC0AA1FBB1FEE1FFF1FA217B307C4
:10201000E407F50720F0A21BB30BE40BF50B661FDA
:10202000771F881F991F1A9469F76095709580959E
:1020300090959B01AC01BD01CF0108952F923F9275
:102040004F925F926F927F928F929F92AF92BF92C8
:10205000CF92DF92EF92FF920F931F93CF93DF9374
:10206000CDB7DEB7CA1BDB0B0FB6F894DEBF0FBED1
:10207000CDBF09942A88398848885F846E847D841E
:102080008C849B84AA84B984C884DF80EE80FD8020
:102090000C811B81AA81B981CE0FD11D0FB6F89496
:0E20A000DEBF0FBECDBFED010895F894FFCF57
:1020AE0031204443204D4F544F520032205354455B
:1020BE00505045520031204F4E3A0032204F464686
:1020CE000053746570733A00456E642077697468C6
:1020DE00202A00446972656374696F6E3A00313A62
:1020EE004320323A4343004D6F76696E672E2E00C1
:1020FE0000000000000000000001020203030303C1
:10210E000404040404040404050505050505050579
:10211E000505050505050505060606060606060659
:10212E000606060606060606060606060606060641
:10213E000606060606060606070707070707070729
:10214E000707070707070707070707070707070711
:10215E000707070707070707070707070707070701
:10216E0007070707070707070707070707070707F1
:10217E0007070707070707070808080808080808D9
:10218E0008080808080808080808080808080808C1
:10219E0008080808080808080808080808080808B1
:1021AE0008080808080808080808080808080808A1
:1021BE000808080808080808080808080808080891
:1021CE000808080808080808080808080808080881
:1021DE000808080808080808080808080808080871
:1021EE000808080808080808080808080808080861
:1021FE00080808080808080801010101010100008B
:10220E0001010000000001010001010001010101B6
:10221E0001000001000101000001010100010100A7
:10222E000101010001010101010101010000010094
:10223E00010101010101010101010100010133361A
:10224E003923323538303134372A2F2A2D2B414558
:10225E00494D42464A4E43474B4F44484C5000016D
:06226E000203040506074F
:00000001FF
