:100000000C942A000C94EC090C941F0A0C94520ACC
:100010000C9447000C9447000C9447000C94470044
:100020000C9447000C9447000C942F080C941F0864
:100030000C9447000C9447000C9447000C94470024
:100040000C9447000C9447000C9447000C94470014
:100050000C94470011241FBECFE5D8E0DEBFCDBF12
:1000600011E0A0E6B0E0E2E4FAE202C005900D92F1
:10007000A63DB107D9F711E0A6EDB1E001C01D9290
:10008000A83EB107E1F70E940C140C941F150C94C4
:100090000000EF92FF920F931F937B018C0120E0F1
:1000A00030E040E05FE40E94F50388238CF0C80153
:1000B000B70120E030E040E05FE40E94C1010E940F
:1000C00055049B01AC01205030404040504806C0D0
:1000D000C801B7010E9455049B01AC01B901CA01D6
:1000E0001F910F91FF90EF900895A0E0B0E0EBE733
:1000F000F0E00C94E814DC012B01FA019C919230A1
:1001000008F439C1EB018881823008F433C194309E
:1001100069F4843009F02FC111969C91119789815F
:10012000981709F428C1A0E6B0E025C1843009F48D
:1001300021C18230A9F4923009F01DC19A01AD01AC
:1001400088E0EA010990AE01E90109929E0181501F
:10015000C1F7E201898111969C918923818308C1AD
:10016000923009F407C112962D903C901397EB0141
:100170008A819B811496AD90BD90CD90DC901797AD
:10018000EC80FD800E811F819101281B390BB90184
:1001900037FF04C066277727621B730B6032710537
:1001A0000CF061C0121613066CF537014801062EDB
:1001B00004C096948794779467940A94D2F721E0C8
:1001C00030E040E050E004C0220F331F441F551FB1
:1001D0006A95D2F721503040404050402E213F21B7
:1001E00040235123211531054105510521F021E01E
:1001F00030E040E050E079018A01E628F72808293C
:1002000019293CC0232BD1F1260E371E350146019A
:10021000062E04C096948794779467940A94D2F734
:1002200021E030E040E050E004C0220F331F441FC3
:10023000551F6A95D2F721503040404050402A2146
:100240003B214C215D21211531054105510521F04E
:1002500021E030E040E050E059016A01A628B728CB
:10026000C828D9280BC0821593052CF01C01AA249C
:10027000BB24650103C0EE24FF24870111969C91E5
:10028000D20111968C91981709F445C0992339F041
:10029000A80197012A193B094C095D0906C0A6016E
:1002A00095012E193F09400B510B57FD08C01182D3
:1002B0003382228224833583468357831DC081E0A5
:1002C00081833382228288279927DC01821B930B4A
:1002D000A40BB50B84839583A683B7830DC0220F2F
:1002E000331F441F551F24833583468357838281E0
:1002F000938101979383828324813581468157813D
:10030000DA01C9010197A109B1098F5F9F4FAF4F72
:10031000BF4328F30BC0918333822282EA0CFB1C7B
:100320000C1D1D1DE482F5820683178383E0808304
:10033000248135814681578157FF1AC0C901AA27F8
:1003400097FDA095BA2F81709070A070B0705695EF
:10035000479537952795822B932BA42BB52B848318
:100360009583A683B7838281938101969383828349
:10037000DF0101C0D201CD01CDB7DEB7E2E10C94BF
:100380000415A0E2B0E0E7ECF1E00C94F41469830A
:100390007A838B839C832D833E834F835887E9E048
:1003A000EE2EF12CEC0EFD1ECE010196B7010E943F
:1003B00046068E010F5E1F4FCE010596B8010E94C2
:1003C00046068A8991E089278A8BC701B801AE0168
:1003D000475E5F4F0E9475000E947105A096E6E09F
:1003E0000C941015A0E2B0E0E8EFF1E00C94F414E6
:1003F00069837A838B839C832D833E834F835887C5
:10040000F9E0EF2EF12CEC0EFD1ECE010196B701A6
:100410000E9446068E010F5E1F4FCE010596B80161
:100420000E944606C701B801AE01475E5F4F0E94B9
:1004300075000E947105A096E6E00C941015A0E2EC
:10044000B0E0E5E2F2E00C94E81469837A838B83F0
:100450009C832D833E834F835887CE010196BE0136
:10046000675F7F4F0E944606CE010596BE016F5E14
:100470007F4F0E9446069985923088F089898230A4
:10048000C8F0943019F4823051F404C0843029F457
:10049000923081F480E690E0C6C0923049F420E0CA
:1004A0009A858A89981321E02A87CE010996BBC0D4
:1004B000823049F420E09A858A89981321E02A8BBA
:1004C000CE014196B0C02D843E844F8458886D88FB
:1004D0007E888F88988CEE24FF248701AA24BB2471
:1004E000650140E050E060E070E0E0E0F0E0C10174
:1004F00081709070892BE9F0E60CF71C081D191D1E
:100500009A01AB012A0D3B1D4C1D5D1D80E090E062
:10051000A0E0B0E0E614F7040805190520F481E036
:1005200090E0A0E0B0E0BA01A901480F591F6A1F8E
:100530007B1FAA0CBB1CCC1CDD1C97FE08C081E0F5
:1005400090E0A0E0B0E0A82AB92ACA2ADB2A3196B6
:10055000E032F10549F0660C771C881C991C569412
:10056000479437942794C3CFFA85EA892B893C892D
:100570008B859C85280F391F2E5F3F4F17C0CA01FE
:1005800081709070892B61F016950795F794E79428
:1005900080E090E0A0E0B0E8E82AF92A0A2B1B2BC3
:1005A00076956795579547952F5F3F4F77FDE7CF36
:1005B0000CC0440F551F661F771F17FD4160EE0CDE
:1005C000FF1C001F111F21503040403090E05907A0
:1005D00090E0690790E4790760F32B8F3C8FDB0193
:1005E000CA018F779070A070B07080349105A1051A
:1005F000B10561F447FD0AC0E114F10401051105DC
:1006000029F0405C5F4F6F4F7F4F40781A8EFE1786
:1006100011F081E08A8F4D8F5E8F6F8F78A383E01A
:10062000898FCE0149960E947105A096E2E10C9453
:100630000415A8E1B0E0EFE1F3E00C94F014698355
:100640007A838B839C832D833E834F835887B9E0C5
:10065000EB2EF12CEC0EFD1ECE010196B7010E948F
:1006600046068E010F5E1F4FCE010596B8010E940F
:1006700046062985223008F47EC03989323010F4CC
:10068000B8017CC08A859A8989278A87243011F02D
:10069000223031F4231709F06EC060E670E06EC0BE
:1006A000343039F41D861E861F86188A1C861B86E8
:1006B00004C0323021F484E08987B7015FC02B8504
:1006C0003C858B899C89281B390B3C872B87ED84C3
:1006D000FE840F851889AD88BE88CF88D88CEA142F
:1006E000FB040C051D0540F4EE0CFF1C001F111F40
:1006F000215030403C872B8720E030E040E050E044
:1007000080E090E0A0E0B0E460E070E0EA14FB0478
:100710000C051D0540F0282B392B4A2B5B2BEA18C2
:10072000FB080C091D09B695A79597958795EE0CC2
:10073000FF1C001F111F6F5F7F4F6F31710531F775
:10074000DA01C9018F779070A070B0708034910584
:10075000A105B10561F427FD0AC0E114F10401050A
:10076000110529F0205C3F4F4F4F5F4F20782D87B8
:100770003E874F87588BBE01675F7F4FCB010E943A
:1007800071056896EAE00C940C15A8E1B0E0EBEC7A
:10079000F3E00C94F41469837A838B839C832D8318
:1007A0003E834F83588789E0E82EF12CEC0EFD1E26
:1007B000CE010196B7010E9446068E010F5E1F4FC3
:1007C000CE010596B8010E9446068985823040F028
:1007D0008989823028F0C701B8010E94BE0601C095
:1007E0008FEF6896E6E00C941015A8E1B0E0EBEF0F
:1007F000F3E00C94F41469837A838B839C832D83B8
:100800003E834F83588789E0E82EF12CEC0EFD1EC5
:10081000CE010196B7010E9446068E010F5E1F4F62
:10082000CE010596B8010E9446068985823040F0C7
:100830008989823028F0C701B8010E94BE0601C034
:100840008FEF6896E6E00C941015A8E1B0E0EBE2BB
:10085000F4E00C94F41469837A838B839C832D8356
:100860003E834F83588789E0E82EF12CEC0EFD1E65
:10087000CE010196B7010E9446068E010F5E1F4F02
:10088000CE010596B8010E9446068985823040F067
:100890008989823028F0C701B8010E94BE0601C0D4
:1008A00081E06896E6E00C941015ACE0B0E0EBE572
:1008B000F4E00C94F81469837A838B839C83CE01D3
:1008C0000196BE016B5F7F4F0E9446068D8182308C
:1008D00061F1823050F1843021F48E81882351F10E
:1008E0002EC02F81388537FD20C06E812F31310514
:1008F0001CF06623F9F023C08EE190E0821B930B7D
:1009000029853A854B855C8504C056954795379572
:1009100027958A95D2F76623B1F05095409530958A
:1009200021953F4F4F4F5F4F0EC020E030E040E039
:1009300050E009C02FEF3FEF4FEF5FE704C020E02A
:1009400030E040E050E8B901CA012C96E2E00C9496
:100950001415A8E0B0E0EFEAF4E00C94F0147B0189
:100960008C01611571058105910519F482E0898377
:1009700060C083E089838EE1C82ED12CDC82CB82DB
:10098000ED82FE820F831887C801B7010E942205FD
:10099000FC013197F7FF3BC0222733272E1B3F0B6B
:1009A00057016801022E04C0D694C794B794A79447
:1009B0000A94D2F740E050E060E070E081E090E01F
:1009C000A0E0B0E004C0880F991FAA1FBB1F2A95A2
:1009D000D2F70197A109B1098E219F21A023B1234C
:1009E0000097A105B10521F041E050E060E070E022
:1009F0004A295B296C297D294D835E836F83788723
:100A00008EE190E08E1B9F0B9C838B8312C03097EE
:100A100081F00E2E04C0EE0CFF1C001F111F0A9463
:100A2000D2F7ED82FE820F831887CE1ADF0ADC82AE
:100A3000CB821A82CE0101960E9471052896EAE0C7
:100A40000C940C15EF92FF920F931F937B018C0176
:100A500080E0E81680E0F80681E0080780E01807EB
:100A600088F48FEFE816F1040105110531F028F044
:100A700088E090E0A0E0B0E017C080E090E0A0E067
:100A8000B0E012C080E0E81680E0F80680E00807D9
:100A900081E0180728F088E190E0A0E0B0E004C011
:100AA00080E190E0A0E0B0E020E230E040E050E003
:100AB000281B390B4A0B5B0B04C016950795F7945E
:100AC000E7948A95D2F7F701E859FF4F8081281BF8
:100AD000310941095109C9011F910F91FF90EF9010
:100AE0000895DF92EF92FF920F931F93FC01E48031
:100AF000F58006811781D1808081823048F480E0C2
:100B000090E0A0E1B0E0E82AF92A0A2B1B2BA5C04F
:100B1000843009F49FC0823021F4EE24FF24870141
:100B200005C0E114F1040105110519F4E0E0F0E05D
:100B300096C0628173819FEF623879070CF05BC0C9
:100B400022E83FEF261B370B2A3131052CF020E03D
:100B500030E040E050E02AC0B801A701022E04C0F6
:100B600076956795579547950A94D2F781E090E07E
:100B7000A0E0B0E004C0880F991FAA1FBB1F2A95F0
:100B8000D2F70197A109B1098E219F21A023B1239A
:100B90000097A105B10521F081E090E0A0E0B0E070
:100BA0009A01AB01282B392B4A2B5B2BDA01C901A7
:100BB0008F779070A070B07080349105A105B10559
:100BC00039F427FF09C0205C3F4F4F4F5F4F04C0EF
:100BD000215C3F4F4F4F5F4FE0E0F0E02030A0E05E
:100BE0003A07A0E04A07A0E45A0710F0E1E0F0E07D
:100BF00079018A0127C06038710564F5FB01E1586D
:100C0000FF4FD801C7018F779070A070B07080340B
:100C10009105A105B10539F4E7FE0DC080E490E02F
:100C2000A0E0B0E004C08FE390E0A0E0B0E0E80E08
:100C3000F91E0A1F1B1F17FF05C016950795F7948D
:100C4000E794319687E016950795F794E7948A958F
:100C5000D1F705C0EE24FF248701EFEFF0E06E2FFF
:100C6000679566276795902F9F77D794DD24D79453
:100C70008E2F8695492F462B582F5D29B701CA0123
:100C80001F910F91FF90EF90DF900895FC01DB0121
:100C9000408151812281622F6F7770E0221F2227CD
:100CA000221F9381892F880F822B282F30E0991FD4
:100CB0009927991F11969C93119721153105A9F534
:100CC000411551056105710511F482E037C082E8D4
:100CD0009FEF13969C938E9312979A01AB0167E056
:100CE000220F331F441F551F6A95D1F783E08C9361
:100CF0000DC0220F331F441F551F12968D919C91DA
:100D00001397019713969C938E931297203080E04F
:100D1000380780E0480780E4580758F314962D936D
:100D20003D934D935C93179708952F3F310579F4C8
:100D3000411551056105710519F484E08C930895FE
:100D400064FF03C081E08C9312C01C9210C02F5727
:100D5000304013963C932E93129783E08C9387E058
:100D6000440F551F661F771F8A95D1F7706414963C
:100D70004D935D936D937C93179708951F93DC01BA
:100D8000FB019C91923008F447C08081823008F4C6
:100D900043C0943051F411961C91843099F58181AF
:100DA000682F70E0611B71093FC0843021F09230E0
:100DB00031F48230B9F18181882389F12DC01196F7
:100DC0001C9111978230F1F081811817D9F4129695
:100DD0002D913C911397828193818217930794F010
:100DE00028173907BCF014968D919D910D90BC91F8
:100DF000A02D2481358146815781281739074A075C
:100E00005B0718F4112341F00AC082179307A40767
:100E1000B50740F4112319F061E070E005C06FEFF1
:100E20007FEF02C060E070E0CB011F910895DF9377
:100E3000CF93CDB7DEB7A3E5B0E0E3E5F0E0808186
:100E400088608C93A3E5B0E0E3E5F0E080818F7BE0
:100E50008C93ECE5F0E083E08083A3E5B0E0E3E58C
:100E6000F0E080818E7F8C93A3E5B0E0E3E5F0E0D5
:100E7000808182608C93A3E5B0E0E3E5F0E08081BF
:100E800084608C93CF91DF910895DF93CF93CDB79A
:100E9000DEB7A3E5B0E0E3E5F0E0808188608C9305
:100EA000A3E5B0E0E3E5F0E0808180648C93A3E506
:100EB000B0E0E3E5F0E0808181608C93A3E5B0E0F1
:100EC000E3E5F0E0808182608C93A3E5B0E0E3E5A8
:100ED000F0E080818B7F8C93A3E5B0E0E3E5F0E068
:100EE00080818F7E8C93A3E5B0E0E3E5F0E0808124
:100EF00080628C93CF91DF910895DF93CF93CDB72C
:100F0000DEB72C970FB6F894DEBF0FBECDBF698752
:100F10007A878B879C8769857A858B859C850E94DB
:100F2000A904DC01CB01BC01CD012FE632E143E095
:100F300050E40E941903DC01CB01BC01CD0120E08B
:100F400030E040E05FE30E94F201DC01CB01BC0134
:100F5000CD010E944900DC01CB018D839E83AF83CC
:100F6000B8878091D8019091D901A091DA01B09110
:100F7000DB0189839A83AB83BC832091D8013091B4
:100F8000D9014091DA015091DB0189819A81AB81CD
:100F9000BC81281B390B4A0B5B0B8D819E81AF8175
:100FA000B885281739074A075B0738F32C960FB620
:100FB000F894DEBF0FBECDBFCF91DF910895DF93D0
:100FC000CF9300D00F92CDB7DEB79B838A8381E0A9
:100FD00089838A819B81009739F08A819B819093D4
:100FE000D7018093D60101C0198289810F900F909B
:100FF0000F90CF91DF910895DF93CF93CDB7DEB7F8
:10100000A9E5B0E0E9E5F0E0808181608C93A9E595
:10101000B0E0E9E5F0E0808182608C93CF91DF91D0
:101020000895DF93CF930F92CDB7DEB78983ECE5B8
:10103000F0E0898180830F90CF91DF9108951F9216
:101040000F920FB60F921124DF93CF93CDB7DEB777
:10105000CF91DF910F900FBE0F901F9018951F92A8
:101060000F920FB60F9211242F933F934F935F93DC
:101070006F937F938F939F93AF93BF93EF93FF9360
:10108000DF93CF93CDB7DEB78091D6019091D70192
:10109000009729F0E091D601F091D7010995CF9101
:1010A000DF91FF91EF91BF91AF919F918F917F91D0
:1010B0006F915F914F913F912F910F900FBE0F90C5
:1010C0001F901895DF93CF93CDB7DEB7CF91DF9107
:1010D0000895DF93CF93CDB7DEB7AFE5B0E0EFE58E
:1010E000F0E0808180688C93CF91DF910895DF9349
:1010F000CF93CDB7DEB7AFE5B0E0EFE5F0E08081AC
:101100008F778C93CF91DF910895DF93CF93CDB7F5
:10111000DEB72A970FB6F894DEBF0FBECDBF898326
:101120006A838981282F30E03A87298789859A85C3
:101130008130910509F46DC029853A852230310549
:1011400009F4C9C089859A85009709F0EAC08A81A7
:10115000282F30E038872F838F8198858130910543
:1011600021F12F813885223031052CF48F8198852B
:10117000009761F046C02F8138852230310521F17A
:101180008F8198858330910571F13BC0A5E5B0E072
:10119000E5E5F0E080818E7F8C93A5E5B0E0E5E5A4
:1011A000F0E080818D7F8C932CC0A5E5B0E0E5E573
:1011B000F0E0808181608C93A5E5B0E0E5E5F0E0AA
:1011C00080818D7F8C931DC0A5E5B0E0E5E5F0E062
:1011D00080818E7F8C93A5E5B0E0E5E5F0E080812D
:1011E00082608C930EC0A5E5B0E0E5E5F0E080817B
:1011F00081608C93A5E5B0E0E5E5F0E08081826058
:101200008C93ABE5B0E0EBE5F0E0808180648C93FB
:1012100088C08A81282F30E03E832D838D819E8176
:101220008130910521F12D813E81223031052CF450
:101230008D819E81009761F046C02D813E812230D4
:10124000310521F18D819E818330910571F13BC083
:10125000A5E5B0E0E5E5F0E080818E7F8C93A5E523
:10126000B0E0E5E5F0E080818D7F8C932CC0A5E5B2
:10127000B0E0E5E5F0E0808181608C93A5E5B0E029
:10128000E5E5F0E080818D7F8C931DC0A5E5B0E0A1
:10129000E5E5F0E080818E7F8C93A5E5B0E0E5E5A3
:1012A000F0E0808182608C930EC0A5E5B0E0E5E5BA
:1012B000F0E0808181608C93A5E5B0E0E5E5F0E0A9
:1012C000808182608C93ABE5B0E0EBE5F0E080815B
:1012D00080688C9326C08A81282F30E03C832B8342
:1012E0008B819C818230910531F02B813C812330B0
:1012F000310549F00FC0A4E5B0E0E4E5F0E08081FD
:101300008F7B8C9307C0A4E5B0E0E4E5F0E080813A
:1013100080648C93ABE5B0E0EBE5F0E08081806227
:101320008C932A960FB6F894DEBF0FBECDBFCF9137
:10133000DF910895DF93CF9300D00F92CDB7DEB742
:1013400089838981282F30E03B832A838A819B818E
:101350008130910589F02A813B8122303105A1F04D
:101360008A819B810097B9F4ABE5B0E0EBE5F0E052
:1013700080818F7B8C930FC0ABE5B0E0EBE5F0E0B4
:1013800080818F778C9307C0ABE5B0E0EBE5F0E0B0
:1013900080818F7D8C930F900F900F90CF91DF9174
:1013A0000895DF93CF9300D00F92CDB7DEB79A8325
:1013B00089836B838B81882F90E0880F991FFC01B4
:1013C000E352FE4F89819A81918380830F900F9021
:1013D0000F90CF91DF9108951F920F920FB60F9249
:1013E00011242F933F934F935F936F937F938F932A
:1013F0009F93AF93BF93EF93FF93DF93CF93CDB7BB
:10140000DEB78091DD019091DE01009729F0E09137
:10141000DD01F091DE010995CF91DF91FF91EF9110
:10142000BF91AF919F918F917F916F915F914F91FC
:101430003F912F910F900FBE0F901F9018951F9204
:101440000F920FB60F9211242F933F934F935F93F8
:101450006F937F938F939F93AF93BF93EF93FF937C
:10146000DF93CF93CDB7DEB78091DF019091E0019C
:10147000009729F0E091DF01F091E0010995CF910B
:10148000DF91FF91EF91BF91AF919F918F917F91EC
:101490006F915F914F913F912F910F900FBE0F90E1
:1014A0001F9018951F920F920FB60F9211242F9331
:1014B0003F934F935F936F937F938F939F93AF93DC
:1014C000BF93EF93FF93DF93CF93CDB7DEB78091B8
:1014D000E1019091E201009729F0E091E101F091A2
:1014E000E2010995CF91DF91FF91EF91BF91AF910B
:1014F0009F918F917F916F915F914F913F912F912C
:101500000F900FBE0F901F901895DF93CF93CDB71C
:10151000DEB781E063E041E00E94A00A80E060E085
:1015200040E00E94A00A82E060E041E00E94A00A40
:1015300082E060E041E00E94CA0BCF91DF91089504
:10154000DF93CF93CDB7DEB72E970FB6F894DEBFFB
:101550000FBECDBF8A836B834C8381E089838A81F0
:10156000843008F00CC18B81883008F008C18C8170
:10157000813021F08C81882309F001C18A81282FD4
:1015800030E03E872D878D859E858130910509F459
:101590004FC02D853E85223031052CF48D859E85EA
:1015A000009771F0EDC02D853E852230310509F49C
:1015B00077C08D859E858330910509F4A9C0E0C070
:1015C0008C81282F30E03C872B878B859C8500976A
:1015D000D1F02B853C852130310509F0D1C0AAE33B
:1015E000B0E0EAE3F0E08081482F8B81282F30E0E3
:1015F00081E090E0022E02C0880F991F0A94E2F762
:10160000842B8C93BDC0AAE3B0E0EAE3F0E08081D4
:10161000482F8B81282F30E081E090E0022E02C01D
:10162000880F991F0A94E2F7809584238C93A8C0B1
:101630008C81282F30E03A87298789859A85009701
:10164000D1F029853A852130310509F099C0A7E309
:10165000B0E0E7E3F0E08081482F8B81282F30E075
:1016600081E090E0022E02C0880F991F0A94E2F7F1
:10167000842B8C9385C0A7E3B0E0E7E3F0E08081A2
:10168000482F8B81282F30E081E090E0022E02C0AD
:10169000880F991F0A94E2F7809584238C9370C079
:1016A0008C81282F30E038872F838F819885009791
:1016B000D1F02F8138852130310509F061C0A4E3D4
:1016C000B0E0E4E3F0E08081482F8B81282F30E008
:1016D00081E090E0022E02C0880F991F0A94E2F781
:1016E000842B8C934DC0A4E3B0E0E4E3F0E0808170
:1016F000482F8B81282F30E081E090E0022E02C03D
:10170000880F991F0A94E2F7809584238C9338C040
:101710008C81282F30E03E832D838D819E81009720
:10172000C9F02D813E812130310551F5A1E3B0E0B2
:10173000E1E3F0E08081482F8B81282F30E081E0C9
:1017400090E0022E02C0880F991F0A94E2F7842BC2
:101750008C9316C0A1E3B0E0E1E3F0E08081482F74
:101760008B81282F30E081E090E0022E02C0880FAC
:10177000991F0A94E2F7809584238C9301C0198203
:1017800089812E960FB6F894DEBF0FBECDBFCF91E4
:10179000DF910895DF93CF93CDB7DEB72E970FB6C5
:1017A000F894DEBF0FBECDBF8A836B834C8381E08C
:1017B00089838B81883008F008C18A81282F30E026
:1017C0003E872D878D859E858130910509F450C017
:1017D0002D853E85223031052CF48D859E85009720
:1017E00071F0F1C02D853E852230310509F479C0B4
:1017F0008D859E858330910509F4ACC0E4C08C8151
:10180000282F30E03C872B878B859C850097C9F07B
:101810002B853C852130310549F5ABE3B0E0EBE3A6
:10182000F0E08081482F8B81282F30E081E090E02C
:10183000022E02C0880F991F0A94E2F7842B8C9322
:10184000C5C0ABE3B0E0EBE3F0E08081482F8B81D3
:10185000282F30E081E090E0022E02C0880F991F0F
:101860000A94E2F7809584238C93B0C01982AEC0AD
:101870008C81282F30E03A87298789859A850097BF
:10188000C9F029853A852130310549F5A8E3B0E052
:10189000E8E3F0E08081482F8B81282F30E081E061
:1018A00090E0022E02C0880F991F0A94E2F7842B61
:1018B0008C938CC0A8E3B0E0E8E3F0E08081482F8F
:1018C0008B81282F30E081E090E0022E02C0880F4B
:1018D000991F0A94E2F7809584238C9377C019822C
:1018E00075C08C81282F30E038872F838F819885B1
:1018F0000097C9F02F8138852130310549F5A5E3DE
:10190000B0E0E5E3F0E08081482F8B81282F30E0C4
:1019100081E090E0022E02C0880F991F0A94E2F73E
:10192000842B8C9353C0A5E3B0E0E5E3F0E0808125
:10193000482F8B81282F30E081E090E0022E02C0FA
:10194000880F991F0A94E2F7809584238C933EC0F8
:1019500019823CC08C81282F30E03E832D838D81FD
:101960009E810097C9F02D813E812130310549F5D6
:10197000A2E3B0E0E2E3F0E08081482F8B81282FE2
:1019800030E081E090E0022E02C0880F991F0A9497
:10199000E2F7842B8C931AC0A2E3B0E0E2E3F0E01C
:1019A0008081482F8B81282F30E081E090E0022E4B
:1019B00002C0880F991F0A94E2F7809584238C93C4
:1019C00005C0198203C0198201C0198289812E962F
:1019D0000FB6F894DEBF0FBECDBFCF91DF91089553
:1019E000DF93CF93CDB7DEB728970FB6F894DEBF5D
:1019F0000FBECDBF8B836C835E834D8381E08A8372
:101A00008B81282F30E038872F834F8158854130D4
:101A1000510559F18F8198858230910534F42F81D9
:101A200038852115310569F05CC04F8158854230F9
:101A3000510579F18F8198858330910509F43DC076
:101A400050C0E9E3F0E08081282F30E08C81882FBE
:101A500090E0A90102C0559547958A95E2F7CA0121
:101A60008170ED81FE8180833DC0E6E3F0E08081FE
:101A7000282F30E08C81882F90E0A90102C0559575
:101A800047958A95E2F7CA018170ED81FE818083D6
:101A900029C0E3E3F0E08081282F30E08C81882F9B
:101AA00090E0A90102C0559547958A95E2F7CA01D1
:101AB0008170ED81FE81808315C0E0E3F0E08081DC
:101AC000282F30E08C81882F90E0A90102C0559525
:101AD00047958A95E2F7CA018170ED81FE81808386
:101AE00001C01A828A8128960FB6F894DEBF0FBE15
:101AF000CDBFCF91DF910895DF93CF93CDB7DEB700
:101B00002D970FB6F894DEBF0FBECDBF8A836B83CF
:101B100081E089838B81813021F08B81882309F0DA
:101B20007FC08A81282F30E03D872C878C859D855A
:101B30008130910571F12C853D85223031052CF4E1
:101B40008C859D85009769F069C02C853D85223084
:101B50003105B1F18C859D858330910509F447C02D
:101B60005DC08B81282F30E03B872A878A859B8543
:101B7000009759F02A853B852130310509F051C085
:101B8000EAE3F0E08FEF80834CC0EAE3F0E01082FC
:101B900048C08B81282F30E0398728878885998530
:101BA000009751F02885398521303105D1F5E7E3DB
:101BB000F0E08FEF808335C0E7E3F0E0108231C0C2
:101BC0008B81282F30E03F832E838E819F81009769
:101BD00051F02E813F812130310519F5E4E3F0E029
:101BE0008FEF80831EC0E4E3F0E010821AC08B8187
:101BF000282F30E03D832C838C819D81009751F00C
:101C00002C813D812130310561F4E1E3F0E08FEF7B
:101C1000808307C0E1E3F0E0108203C0198201C0B5
:101C2000198289812D960FB6F894DEBF0FBECDBF05
:101C3000CF91DF910895DF93CF9300D000D00F9222
:101C4000CDB7DEB78A836B8381E089838A81282FB1
:101C500030E03D832C838C819D8181309105D1F0D2
:101C60002C813D81223031052CF48C819D8100979F
:101C700061F01FC02C813D812230310581F08C81C3
:101C80009D818330910581F014C0EBE3F0E08B81FE
:101C9000808310C0E8E3F0E08B8180830BC0E5E334
:101CA000F0E08B81808306C0E2E3F0E08B818083EB
:101CB00001C0198289810F900F900F900F900F90A3
:101CC000CF91DF910895DF93CF9300D000D000D063
:101CD000CDB7DEB78A837C836B8381E089838B8178
:101CE0009C810097E9F18A81282F30E03E832D8383
:101CF0008D819E8181309105E1F02D813E812230E0
:101D000031052CF48D819E81009761F027C02D81D3
:101D10003E8122303105A1F08D819E818330910575
:101D2000B1F01CC0E9E3F0E08081EB81FC818083AD
:101D300018C0E6E3F0E08081EB81FC81808311C074
:101D4000E3E3F0E08081EB81FC8180830AC0E0E383
:101D5000F0E08081EB81FC81808303C0198201C0A7
:101D60001982898126960FB6F894DEBF0FBECDBFCB
:101D7000CF91DF910895DF93CF93CDB7DEB7A6E281
:101D8000B0E0E6E2F0E080818E7F8C93A6E2B0E0E6
:101D9000E6E2F0E080818D7F8C93A6E2B0E0E6E29F
:101DA000F0E0808184608C93A7E2B0E0E7E2F0E0AD
:101DB00080818E7F8C93A7E2B0E0E7E2F0E0808143
:101DC0008D7F8C93A7E2B0E0E7E2F0E080818B7F2B
:101DD0008C93A7E2B0E0E7E2F0E08081877F8C930C
:101DE000A7E2B0E0E7E2F0E080818F7E8C93A7E28B
:101DF000B0E0E7E2F0E080818F7D8C93A7E2B0E075
:101E0000E7E2F0E0808180648C93A7E2B0E0E7E253
:101E1000F0E080818F778C93A6E2B0E0E6E2F0E01C
:101E2000808180688C93CF91DF910895DF93CF9369
:101E3000CDB7DEB728970FB6F894DEBF0FBECDBF83
:101E40008E8378876F8381E08D831C821B828F81D4
:101E50009885009709F453C0A7E2B0E0E7E2F0E00C
:101E60008081807E8C93A7E2B0E0E7E2F0E0908191
:101E70008E81892B8C93A6E2B0E0E6E2F0E08081CF
:101E800080648C9305C08B819C8101969C838B839D
:101E9000E6E2F0E0808182958F70882F90E081707B
:101EA0009070009731F48B819C8127E280319207FA
:101EB00050F38B819C8127E28031920711F41D82BF
:101EC0001FC0A6E2B0E0E6E2F0E0808180618C9382
:101ED000E4E2F0E080818A83E5E2F0E080818983BA
:101EE0008981882F90E0382F22278A81882F90E0DF
:101EF000822B932BEF81F8859183808301C01D8213
:101F00008D81882F90E028960FB6F894DEBF0FBE23
:101F1000CDBFCF91DF910895DF93CF93CDB7DEB7DB
:101F20002C970FB6F894DEBF0FBECDBF69877A87B6
:101F30008B879C871D821E821F82188625C019826E
:101F40001A821B821C820CC0000089819A81AB819D
:101F5000BC810196A11DB11D89839A83AB83BC838B
:101F600089819A81AB81BC81813E9105A105B10532
:101F700058F38D819E81AF81B8850196A11DB11D59
:101F80008D839E83AF83B8872D813E814F81588595
:101F900089859A85AB85BC85281739074A075B0771
:101FA00070F22C960FB6F894DEBF0FBECDBFCF9166
:101FB000DF910895DF93CF93CDB7DEB781E06FE077
:101FC0000E941B0ECF91DF910895DF93CF93CDB781
:101FD000DEB72F970FB6F894DEBF0FBECDBF8E874A
:101FE0006F8781E08D878F85882F90E0A0E0B0E03B
:101FF000072E7BE0880F991FAA1FBB1F7A95D1F788
:10200000702D20EA35E040E050E0BC01CD010E9497
:10201000C614DA01C90189879A87AB87BC878E8588
:10202000882309F05FC01D821E821F8218864BC064
:1020300081E060E040E00E94CA0B6AE070E080E06E
:1020400090E00E948C0F81E060E041E00E94CA0BAA
:1020500081E061E040E00E94CA0B6AE070E080E04D
:1020600090E00E948C0F81E061E041E00E94CA0B89
:1020700081E062E040E00E94CA0B6AE070E080E02C
:1020800090E00E948C0F81E062E041E00E94CA0B68
:1020900081E063E040E00E94CA0B6AE070E080E00B
:1020A00090E00E948C0F81E063E041E00E94CA0B47
:1020B0008D819E81AF81B8850196A11DB11D8D8353
:1020C0009E83AF83B8872D813E814F815885898556
:1020D0009A85AB85BC85281739074A075B0708F442
:1020E000A7CF64C08E85813009F05FC019821A8243
:1020F0001B821C824BC081E063E040E00E94CA0B5F
:102100006AE070E080E090E00E948C0F81E063E084
:1021100041E00E94CA0B81E062E040E00E94CA0BED
:102120006AE070E080E090E00E948C0F81E062E065
:1021300041E00E94CA0B81E061E040E00E94CA0BCE
:102140006AE070E080E090E00E948C0F81E061E046
:1021500041E00E94CA0B81E060E040E00E94CA0BAF
:102160006AE070E080E090E00E948C0F81E060E027
:1021700041E00E94CA0B89819A81AB81BC810196A2
:10218000A11DB11D89839A83AB83BC8329813A81C8
:102190004B815C8189859A85AB85BC852817390779
:1021A0004A075B0708F4A7CF01C01D8680E02F9681
:1021B0000FB6F894DEBF0FBECDBFCF91DF9108956B
:1021C000DF93CF93CDB7DEB72F970FB6F894DEBF6E
:1021D0000FBECDBF8E876F8781E08D878F85882F5B
:1021E00090E0A0E0B0E089879A87AB87BC878E85B6
:1021F000882309F05FC01D821E821F8218864BC093
:1022000081E060E040E00E94CA0B6AE070E080E09C
:1022100090E00E948C0F81E060E041E00E94CA0BD8
:1022200081E061E040E00E94CA0B6AE070E080E07B
:1022300090E00E948C0F81E061E041E00E94CA0BB7
:1022400081E062E040E00E94CA0B6AE070E080E05A
:1022500090E00E948C0F81E062E041E00E94CA0B96
:1022600081E063E040E00E94CA0B6AE070E080E039
:1022700090E00E948C0F81E063E041E00E94CA0B75
:102280008D819E81AF81B8850196A11DB11D8D8381
:102290009E83AF83B8872D813E814F815885898584
:1022A0009A85AB85BC85281739074A075B0708F470
:1022B000A7CF64C08E85813009F05FC019821A8271
:1022C0001B821C824BC081E063E040E00E94CA0B8D
:1022D0006AE070E080E090E00E948C0F81E063E0B3
:1022E00041E00E94CA0B81E062E040E00E94CA0B1C
:1022F0006AE070E080E090E00E948C0F81E062E094
:1023000041E00E94CA0B81E061E040E00E94CA0BFC
:102310006AE070E080E090E00E948C0F81E061E074
:1023200041E00E94CA0B81E060E040E00E94CA0BDD
:102330006AE070E080E090E00E948C0F81E060E055
:1023400041E00E94CA0B89819A81AB81BC810196D0
:10235000A11DB11D89839A83AB83BC8329813A81F6
:102360004B815C8189859A85AB85BC8528173907A7
:102370004A075B0708F4A7CF01C01D8680E02F96AF
:102380000FB6F894DEBF0FBECDBFCF91DF91089599
:10239000DF93CF93CDB7DEB7EAE3F0E0808161E071
:1023A0000E947C0DCF91DF910895DF93CF93CDB73D
:1023B000DEB780E067E040E00E94CA0BCF91DF917A
:1023C0000895DF93CF93CDB7DEB780E067E041E0BB
:1023D0000E94CA0BCF91DF910895DF93CF9300D075
:1023E00000D0CDB7DEB78C831B82198228C08C81C8
:1023F000282F30E08981482F50E0C901880F991FAC
:10240000880F991F880F991F821B930B840F951FAC
:10241000FC01E859FE4F8081282F30E08981882F08
:1024200090E0A90102C0440F551F8A95E2F7CA0146
:10243000982F8B81892B8B8389818F5F89838981F9
:102440008730A8F280E06B810E941B0E0F900F90E6
:102450000F900F90CF91DF910895DF93CF930F925C
:10246000CDB7DEB7898383E060E040E00E94CA0B0D
:1024700083E062E040E00E94CA0B83E061E041E05B
:102480000E94CA0B81E069810E941B0E62E070E02D
:1024900080E090E00E948C0F83E061E040E00E94C9
:1024A000CA0B0F90CF91DF910895DF93CF93CDB7F3
:1024B000DEB783E060E041E00E94A00A83E062E0D2
:1024C00041E00E94A00A83E061E041E00E94A00A8E
:1024D00081E06FEF0E947C0D6CE370E080E090E0A3
:1024E0000E948C0F8CE30E942D1262E070E080E06D
:1024F00090E00E948C0F8CE00E942D1262E070E050
:1025000080E090E00E948C0F81E00E942D1262E03A
:1025100070E080E090E00E948C0F86E00E942D1217
:1025200062E070E080E090E00E948C0FCF91DF913C
:102530000895DF93CF930F92CDB7DEB7898383E001
:1025400060E041E00E94CA0B83E062E040E00E944C
:10255000CA0B83E061E041E00E94CA0B81E069811F
:102560000E941B0E62E070E080E090E00E948C0F01
:1025700083E061E040E00E94CA0B0F90CF91DF91B1
:102580000895DF93CF9300D0CDB7DEB789836A83F8
:102590008A81882F90E0029600249695879507946B
:1025A000969587950794982F802D982F8981890F6C
:1025B0000E942D120F900F90CF91DF910895DF931D
:1025C000CF9300D00F92CDB7DEB79B838A83198259
:1025D00015C0EA81FB8180810E9499128A819B81CA
:1025E00001969B838A8389818F5F8983898180316A
:1025F00029F480E061E00E94C1121982EA81FB8126
:102600008081882331F70F900F900F90CF91DF9149
:102610000895DF93CF9300D0CDB7DEB71A8208C0FC
:1026200082E06A8141E00E94A00A8A818F5F8A83EA
:102630008A818430A8F384E0898308C082E06981BC
:1026400040E00E94A00A89818F5F89838981883058
:10265000A8F382E06FEF0E941B0E0F900F90CF91B6
:10266000DF910895DF93CF93CDB7DEB729970FB6EB
:10267000F894DEBF0FBECDBF9F838E83688781E055
:102680008C8319828E819F81009709F496C0EE8118
:10269000FF818FEF80831B828BC08B81882F90E01E
:1026A000FC01E253FE4F908182E0692F40E00E94DE
:1026B000CA0B1A8267C08A81882F90E0FC01EE5213
:1026C000FE4F90819E012B5F3F4F82E0692FA90151
:1026D0000E94F00C8D81882309F051C08A81882FD7
:1026E00090E0FC01EE52FE4F90819E012B5F3F4F28
:1026F00082E0692FA9010E94F00C0FC08A81882F07
:1027000090E0FC01EE52FE4F90819E012B5F3F4F07
:1027100082E0692FA9010E94F00C8D81882371F35A
:102720008885882399F08B81482F50E08A81282F53
:1027300030E0CA01880F991F880F991F820F931FDD
:10274000FC01E254FE4F8081898712C08B81482FA3
:1027500050E08A81282F30E0CA01880F991F880F26
:10276000991F820F931FFC01E255FE4F80818987DC
:10277000EE81FF818985808381E0898307C08A811A
:102780008F5F8A838A81843008F495CF8B81882F6C
:1027900090E0FC01E253FE4F908182E0692F41E01E
:1027A0000E94CA0B8981813049F08B818F5F8B83B6
:1027B0008B81843008F471CF01C01C828C812996F2
:1027C0000FB6F894DEBF0FBECDBFCF91DF91089555
:1027D000DF93CF93CDB7DEB781E067E040E00E94A2
:1027E000CA0BCF91DF910895DF93CF93CDB7DEB7BA
:1027F00081E067E041E00E94CA0BCF91DF9108952C
:10280000DF93CF93CDB7DEB781E067E040E00E9471
:10281000CA0BCF91DF910895DF93CF93CDB7DEB789
:1028200065970FB6F894DEBF0FBECDBF0E94850A34
:102830000E94BB0E0E9445079E012C5E3F4F80E028
:10284000B9010E94160F8C899D89CC01A0E0B0E0EF
:10285000BC01CD010E94A904DC01CB01BC01CD016A
:1028600020E030E040EA5BE30E941F02DC01CB0184
:10287000888B998BAA8BBB8B688979898A899B897C
:1028800020E030E048EC51E40E941F02DC01CB0163
:10289000BC01CD010E944900DC01CB0183588F8728
:1028A0008F850E94110880E090E0A8ECB2E48B874D
:1028B0009C87AD87BE876B857C858D859E8520E056
:1028C00030E04AEF54E40E941F02DC01CB018F8309
:1028D0009887A987BA876F81788589859A8520E04E
:1028E00030E040E85FE30E94250488232CF481E077
:1028F00090E09E838D833FC06F81788589859A851E
:1029000020E03FEF4FE757E40E94C50318164CF54F
:102910006B857C858D859E8520E030E040E251E42A
:102920000E941F02DC01CB01BC01CD010E944900C5
:10293000DC01CB019E838D830FC088EC90E09C83EB
:102940008B838B819C810197F1F79C838B838D8195
:102950009E8101979E838D838D819E81009769F76B
:102960006BCF6F81788589859A850E944900DC014B
:10297000CB019E838D838D819E819A8389838981FA
:102980009A810197F1F79A83898356CFA1E21A2E93
:10299000AA1BBB1BFD010DC0AA1FBB1FEE1FFF1F03
:1029A000A217B307E407F50720F0A21BB30BE40B53
:1029B000F50B661F771F881F991F1A9469F760959A
:1029C0007095809590959B01AC01BD01CF01089554
:1029D0002F923F924F925F926F927F928F929F922F
:1029E000AF92BF92CF92DF92EF92FF920F931F931D
:1029F000CF93DF93CDB7DEB7CA1BDB0B0FB6F894CE
:102A0000DEBF0FBECDBF09942A88398848885F840D
:102A10006E847D848C849B84AA84B984C884DF807E
:102A2000EE80FD800C811B81AA81B981CE0FD11D62
:102A30000FB6F894DEBF0FBECDBFED010895F89438
:022A4000FFCFC6
:102A42000000000000000000000102020303030373
:102A5200040404040404040405050505050505052C
:102A6200050505050505050506060606060606060C
:102A720006060606060606060606060606060606F4
:102A820006060606060606060707070707070707DC
:102A920007070707070707070707070707070707C4
:102AA20007070707070707070707070707070707B4
:102AB20007070707070707070707070707070707A4
:102AC200070707070707070708080808080808088C
:102AD2000808080808080808080808080808080874
:102AE2000808080808080808080808080808080864
:102AF2000808080808080808080808080808080854
:102B02000808080808080808080808080808080843
:102B12000808080808080808080808080808080833
:102B22000808080808080808080808080808080823
:102B32000808080808080808080808080808080813
:102B4200080808080808080801010101010100003D
:102B52000101000000000101000101000101010169
:102B6200010000010001010000010101000101005A
:102B72000101010001010101010101010000010047
:102B820001010101010101010101010001013734CB
:102B92003123383532303936333D2F2A2D2B4145FA
:102BA200494D42464A4E43474B4F44484C50000120
:062BB20002030405060702
:00000001FF
