:100000000C942A000C94D3010C9406020C9439022F
:100010000C9447000C9447000C9447000C94470044
:100020000C9447000C9447000C9447000C94470034
:100030000C9447000C9447000C9447000C94470024
:100040000C9447000C9447000C9447000C94470014
:100050000C94470011241FBECFE5D8E0DEBFCDBF12
:1000600010E0A0E6B0E0E2E0F7E102C005900D92FA
:10007000AE3CB107D9F710E0AEECB0E001C01D9284
:10008000A53DB107E1F70E941C0B0C947F0B0C946B
:100090000000DF93CF93CDB7DEB7CF91DF91089506
:1000A000DF93CF93CDB7DEB7AFE5B0E0EFE5F0E09B
:1000B000808180688C93CF91DF910895DF93CF93F7
:1000C000CDB7DEB7AFE5B0E0EFE5F0E080818F7748
:1000D0008C93CF91DF910895DF93CF93CDB7DEB7A7
:1000E0002A970FB6F894DEBF0FBECDBF89836A830F
:1000F0008981282F30E03A87298789859A85813040
:10010000910509F46DC029853A852230310509F43D
:10011000C9C089859A85009709F0EAC08A81282F8D
:1001200030E038872F838F8198858130910521F1C8
:100130002F813885223031052CF48F8198850097E6
:1001400061F046C02F8138852230310521F18F8141
:1001500098858330910571F13BC0A5E5B0E0E5E5F8
:10016000F0E080818E7F8C93A5E5B0E0E5E5F0E0DE
:1001700080818D7F8C932CC0A5E5B0E0E5E5F0E0B3
:10018000808181608C93A5E5B0E0E5E5F0E08081B9
:100190008D7F8C931DC0A5E5B0E0E5E5F0E08081A2
:1001A0008E7F8C93A5E5B0E0E5E5F0E0808182608C
:1001B0008C930EC0A5E5B0E0E5E5F0E080818160BC
:1001C0008C93A5E5B0E0E5E5F0E0808182608C935A
:1001D000ABE5B0E0EBE5F0E0808180648C9388C013
:1001E0008A81282F30E03E832D838D819E8181304E
:1001F000910521F12D813E81223031052CF48D8134
:100200009E81009761F046C02D813E8122303105EC
:1002100021F18D819E818330910571F13BC0A5E56F
:10022000B0E0E5E5F0E080818E7F8C93A5E5B0E05D
:10023000E5E5F0E080818D7F8C932CC0A5E5B0E0F2
:10024000E5E5F0E0808181608C93A5E5B0E0E5E52F
:10025000F0E080818D7F8C931DC0A5E5B0E0E5E5E1
:10026000F0E080818E7F8C93A5E5B0E0E5E5F0E0DD
:10027000808182608C930EC0A5E5B0E0E5E5F0E0FA
:10028000808181608C93A5E5B0E0E5E5F0E08081B8
:1002900082608C93ABE5B0E0EBE5F0E080818068B4
:1002A0008C9326C08A81282F30E03C832B838B815E
:1002B0009C818230910531F02B813C8123303105C6
:1002C00049F00FC0A4E5B0E0E4E5F0E080818F7B69
:1002D0008C9307C0A4E5B0E0E4E5F0E080818064A1
:1002E0008C93ABE5B0E0EBE5F0E0808180628C932D
:1002F0002A960FB6F894DEBF0FBECDBFCF91DF9127
:100300000895DF93CF9300D00F92CDB7DEB78983E6
:100310008981282F30E03B832A838A819B81813029
:10032000910589F02A813B8122303105A1F08A8133
:100330009B810097B9F4ABE5B0E0EBE5F0E080819C
:100340008F7B8C930FC0ABE5B0E0EBE5F0E08081F4
:100350008F778C9307C0ABE5B0E0EBE5F0E08081F0
:100360008F7D8C930F900F900F90CF91DF91089518
:10037000DF93CF9300D00F92CDB7DEB79A838983F6
:100380006B838B81882F90E0880F991FFC01E253CB
:10039000FF4F89819A81918380830F900F900F90F6
:1003A000CF91DF9108951F920F920FB60F921124F3
:1003B0002F933F934F935F936F937F938F939F936D
:1003C000AF93BF93EF93FF93DF93CF93CDB7DEB798
:1003D0008091CE009091CF00009729F0E091CE005F
:1003E000F091CF000995CF91DF91FF91EF91BF91EF
:1003F000AF919F918F917F916F915F914F913F91BD
:100400002F910F900FBE0F901F9018951F920F9273
:100410000FB60F9211242F933F934F935F936F93D7
:100420007F938F939F93AF93BF93EF93FF93DF934C
:10043000CF93CDB7DEB78091D0009091D1000097D7
:1004400029F0E091D000F091D1000995CF91DF9192
:10045000FF91EF91BF91AF919F918F917F916F919C
:100460005F914F913F912F910F900FBE0F901F9072
:1004700018951F920F920FB60F9211242F933F934E
:100480004F935F936F937F938F939F93AF93BF939C
:10049000EF93FF93DF93CF93CDB7DEB78091D20078
:1004A0009091D300009729F0E091D200F091D30011
:1004B0000995CF91DF91FF91EF91BF91AF919F91FE
:1004C0008F917F916F915F914F913F912F910F90FD
:1004D0000FBE0F901F901895DF93CF93CDB7DEB767
:1004E000EAE3F0E08FEF8083CF91DF910895DF930F
:1004F000CF93CDB7DEB72E970FB6F894DEBF0FBE01
:10050000CDBF8A836B834C8381E089838A81843069
:1005100008F00CC18B81883008F008C18C818130D3
:1005200021F08C81882309F001C18A81282F30E0D5
:100530003E872D878D859E858130910509F44FC0BA
:100540002D853E85223031052CF48D859E850097C2
:1005500071F0EDC02D853E852230310509F477C05C
:100560008D859E858330910509F4A9C0E0C08C81FA
:10057000282F30E03C872B878B859C850097D1F016
:100580002B853C852130310509F0D1C0AAE3B0E0CC
:10059000EAE3F0E08081482F8B81282F30E081E072
:1005A00090E0022E02C0880F991F0A94E2F7842B74
:1005B0008C93BDC0AAE3B0E0EAE3F0E08081482F6D
:1005C0008B81282F30E081E090E0022E02C0880F5E
:1005D000991F0A94E2F7809584238C93A8C08C819C
:1005E000282F30E03A87298789859A850097D1F0AE
:1005F00029853A852130310509F099C0A7E3B0E09B
:10060000E7E3F0E08081482F8B81282F30E081E004
:1006100090E0022E02C0880F991F0A94E2F7842B03
:100620008C9385C0A7E3B0E0E7E3F0E08081482F3A
:100630008B81282F30E081E090E0022E02C0880FED
:10064000991F0A94E2F7809584238C9370C08C8163
:10065000282F30E038872F838F8198850097D1F03D
:100660002F8138852130310509F061C0A4E3B0E065
:10067000E4E3F0E08081482F8B81282F30E081E097
:1006800090E0022E02C0880F991F0A94E2F7842B93
:100690008C934DC0A4E3B0E0E4E3F0E08081482F08
:1006A0008B81282F30E081E090E0022E02C0880F7D
:1006B000991F0A94E2F7809584238C9338C08C812B
:1006C000282F30E03E832D838D819E810097C9F0D5
:1006D0002D813E812130310551F5A1E3B0E0E1E308
:1006E000F0E08081482F8B81282F30E081E090E07E
:1006F000022E02C0880F991F0A94E2F7842B8C9374
:1007000016C0A1E3B0E0E1E3F0E08081482F8B81E7
:10071000282F30E081E090E0022E02C0880F991F60
:100720000A94E2F7809584238C9301C01982898111
:100730002E960FB6F894DEBF0FBECDBFCF91DF91DE
:100740000895DF93CF93CDB7DEB72E970FB6F89409
:10075000DEBF0FBECDBF8A836B834C8381E089836C
:100760008B81883008F008C18A81282F30E03E87CD
:100770002D878D859E858130910509F450C02D858A
:100780003E85223031052CF48D859E85009771F0D1
:10079000F1C02D853E852230310509F479C08D8563
:1007A0009E858330910509F4ACC0E4C08C81282F6C
:1007B00030E03C872B878B859C850097C9F02B8583
:1007C0003C852130310549F5ABE3B0E0EBE3F0E0E7
:1007D0008081482F8B81282F30E081E090E0022E2D
:1007E00002C0880F991F0A94E2F7842B8C93C5C02E
:1007F000ABE3B0E0EBE3F0E08081482F8B81282F62
:1008000030E081E090E0022E02C0880F991F0A9428
:10081000E2F7809584238C93B0C01982AEC08C819E
:10082000282F30E03A87298789859A850097C9F073
:1008300029853A852130310549F5A8E3B0E0E8E3A0
:10084000F0E08081482F8B81282F30E081E090E01C
:10085000022E02C0880F991F0A94E2F7842B8C9312
:100860008CC0A8E3B0E0E8E3F0E08081482F8B8102
:10087000282F30E081E090E0022E02C0880F991FFF
:100880000A94E2F7809584238C9377C0198275C00F
:100890008C81282F30E038872F838F8198850097AF
:1008A000C9F02F8138852130310549F5A5E3B0E045
:1008B000E5E3F0E08081482F8B81282F30E081E054
:1008C00090E0022E02C0880F991F0A94E2F7842B51
:1008D0008C9353C0A5E3B0E0E5E3F0E08081482FBE
:1008E0008B81282F30E081E090E0022E02C0880F3B
:1008F000991F0A94E2F7809584238C933EC0198255
:100900003CC08C81282F30E03E832D838D819E81D9
:100910000097C9F02D813E812130310549F5A2E3D0
:10092000B0E0E2E3F0E08081482F8B81282F30E0B7
:1009300081E090E0022E02C0880F991F0A94E2F72E
:10094000842B8C931AC0A2E3B0E0E2E3F0E0808154
:10095000482F8B81282F30E081E090E0022E02C0EA
:10096000880F991F0A94E2F7809584238C9305C021
:10097000198203C0198201C0198289812E960FB68F
:10098000F894DEBF0FBECDBFCF91DF910895DF9306
:10099000CF93CDB7DEB728970FB6F894DEBF0FBE62
:1009A000CDBF8B836C835E834D8381E08A838B8193
:1009B000282F30E038872F834F81588541305105EB
:1009C00059F18F8198858230910534F42F813885D3
:1009D0002115310569F05CC04F81588542305105C1
:1009E00079F18F8198858330910509F43DC050C01D
:1009F000E9E3F0E08081282F30E08C81882F90E0BF
:100A0000A90102C0559547958A95E2F7CA01817000
:100A1000ED81FE8180833DC0E6E3F0E08081282FF8
:100A200030E08C81882F90E0A90102C05595479550
:100A30008A95E2F7CA018170ED81FE81808329C029
:100A4000E3E3F0E08081282F30E08C81882F90E074
:100A5000A90102C0559547958A95E2F7CA018170B0
:100A6000ED81FE81808315C0E0E3F0E08081282FD6
:100A700030E08C81882F90E0A90102C05595479500
:100A80008A95E2F7CA018170ED81FE81808301C001
:100A90001A828A8128960FB6F894DEBF0FBECDBFAA
:100AA000CF91DF910895DF93CF93CDB7DEB72D9728
:100AB0000FB6F894DEBF0FBECDBF8A836B8381E093
:100AC00089838B81813021F08B81882309F07FC05D
:100AD0008A81282F30E03D872C878C859D85813049
:100AE000910571F12C853D85223031052CF48C85E2
:100AF0009D85009769F069C02C853D8522303105C0
:100B0000B1F18C859D858330910509F447C05DC0A6
:100B10008B81282F30E03B872A878A859B85009729
:100B200059F02A853B852130310509F051C0EAE3AF
:100B3000F0E08FEF80834CC0EAE3F0E0108248C021
:100B40008B81282F30E03987288788859985009701
:100B500051F02885398521303105D1F5E7E3F0E002
:100B60008FEF808335C0E7E3F0E0108231C08B81E6
:100B7000282F30E03F832E838E819F81009751F094
:100B80002E813F812130310519F5E4E3F0E08FEF4C
:100B900080831EC0E4E3F0E010821AC08B81282F0E
:100BA00030E03D832C838C819D81009751F02C8116
:100BB0003D812130310561F4E1E3F0E08FEF808386
:100BC00007C0E1E3F0E0108203C0198201C019827E
:100BD00089812D960FB6F894DEBF0FBECDBFCF91A1
:100BE000DF910895DF93CF9300D000D00F92CDB75F
:100BF000DEB78A836B8381E089838A81282F30E086
:100C00003D832C838C819D8181309105D1F02C8195
:100C10003D81223031052CF48C819D81009761F05B
:100C20001FC02C813D812230310581F08C819D8156
:100C30008330910581F014C0EBE3F0E08B81808379
:100C400010C0E8E3F0E08B8180830BC0E5E3F0E0C7
:100C50008B81808306C0E2E3F0E08B81808301C05A
:100C6000198289810F900F900F900F900F90CF9164
:100C7000DF910895DF93CF9300D000D000D0CDB79F
:100C8000DEB78A837C836B8381E089838B819C813F
:100C90000097E9F18A81282F30E03E832D838D81F2
:100CA0009E8181309105E1F02D813E812230310518
:100CB0002CF48D819E81009761F027C02D813E81AB
:100CC00022303105A1F08D819E8183309105B1F0F4
:100CD0001CC0E9E3F0E08081EB81FC81808318C0D7
:100CE000E6E3F0E08081EB81FC81808311C0E3E3E7
:100CF000F0E08081EB81FC8180830AC0E0E3F0E0DA
:100D00008081EB81FC81808303C0198201C019823C
:100D1000898126960FB6F894DEBF0FBECDBFCF9166
:100D2000DF910895DF93CF93CDB7DEB72C970FB641
:100D3000F894DEBF0FBECDBF69877A878B879C870B
:100D40001D821E821F82188625C019821A821B826C
:100D50001C820CC0000089819A81AB81BC81019604
:100D6000A11DB11D89839A83AB83BC8389819A813C
:100D7000AB81BC81813E9105A105B10558F38D8100
:100D80009E81AF81B8850196A11DB11D8D839E8383
:100D9000AF83B8872D813E814F81588589859A859B
:100DA000AB85BC85281739074A075B0770F22C967C
:100DB0000FB6F894DEBF0FBECDBFCF91DF9108957F
:100DC000DF93CF93CDB7DEB781E060E00E94F205FC
:100DD000CF91DF910895DF93CF93CDB7DEB72F97F3
:100DE0000FB6F894DEBF0FBECDBF8E876F8781E050
:100DF0008D878F85882F90E0A0E0B0E0072E7BE004
:100E0000880F991FAA1FBB1F7A95D1F7702D20EA72
:100E100035E040E050E0BC01CD010E945D0BDA01FD
:100E2000C90189879A87AB87BC878E85882309F09B
:100E30005FC01D821E821F8218864BC081E060E069
:100E400040E00E94A1036AE070E080E090E00E9430
:100E5000920681E060E041E00E94A10381E061E050
:100E600040E00E94A1036AE070E080E090E00E9410
:100E7000920681E061E041E00E94A10381E062E02E
:100E800040E00E94A1036AE070E080E090E00E94F0
:100E9000920681E062E041E00E94A10381E063E00C
:100EA00040E00E94A1036AE070E080E090E00E94D0
:100EB000920681E063E041E00E94A1038D819E8162
:100EC000AF81B8850196A11DB11D8D839E83AF832F
:100ED000B8872D813E814F81588589859A85AB855C
:100EE000BC85281739074A075B0708F4A7CF64C0F9
:100EF0008E85813009F05FC019821A821B821C82A4
:100F00004BC081E063E040E00E94A1036AE070E032
:100F100080E090E00E94920681E063E041E00E9460
:100F2000A10381E062E040E00E94A1036AE070E07A
:100F300080E090E00E94920681E062E041E00E9441
:100F4000A10381E061E040E00E94A1036AE070E05B
:100F500080E090E00E94920681E061E041E00E9422
:100F6000A10381E060E040E00E94A1036AE070E03C
:100F700080E090E00E94920681E060E041E00E9403
:100F8000A10389819A81AB81BC810196A11DB11D0C
:100F900089839A83AB83BC8329813A814B815C81AD
:100FA00089859A85AB85BC85281739074A075B0771
:100FB00008F4A7CF01C01D8680E02F960FB6F894E5
:100FC000DEBF0FBECDBFCF91DF910895DF93CF93EA
:100FD000CDB7DEB72F970FB6F894DEBF0FBECDBFEB
:100FE0008E876F8781E08D878F85882F90E0A0E0C6
:100FF000B0E089879A87AB87BC878E85882309F004
:101000005FC01D821E821F8218864BC081E060E097
:1010100040E00E94A1036AE070E080E090E00E945E
:10102000920681E060E041E00E94A10381E061E07E
:1010300040E00E94A1036AE070E080E090E00E943E
:10104000920681E061E041E00E94A10381E062E05C
:1010500040E00E94A1036AE070E080E090E00E941E
:10106000920681E062E041E00E94A10381E063E03A
:1010700040E00E94A1036AE070E080E090E00E94FE
:10108000920681E063E041E00E94A1038D819E8190
:10109000AF81B8850196A11DB11D8D839E83AF835D
:1010A000B8872D813E814F81588589859A85AB858A
:1010B000BC85281739074A075B0708F4A7CF64C027
:1010C0008E85813009F05FC019821A821B821C82D2
:1010D0004BC081E063E040E00E94A1036AE070E061
:1010E00080E090E00E94920681E063E041E00E948F
:1010F000A10381E062E040E00E94A1036AE070E0A9
:1011000080E090E00E94920681E062E041E00E946F
:10111000A10381E061E040E00E94A1036AE070E089
:1011200080E090E00E94920681E061E041E00E9450
:10113000A10381E060E040E00E94A1036AE070E06A
:1011400080E090E00E94920681E060E041E00E9431
:10115000A10389819A81AB81BC810196A11DB11D3A
:1011600089839A83AB83BC8329813A814B815C81DB
:1011700089859A85AB85BC85281739074A075B079F
:1011800008F4A7CF01C01D8680E02F960FB6F89413
:10119000DEBF0FBECDBFCF91DF910895DF93CF9318
:1011A000CDB7DEB7EAE3F0E0808161E00E9453054D
:1011B000CF91DF910895DF93CF93CDB7DEB780E075
:1011C00067E040E00E94A103CF91DF910895DF9393
:1011D000CF93CDB7DEB780E067E041E00E94A10386
:1011E000CF91DF910895DF93CF9300D000D0CDB79A
:1011F000DEB78C831B82198228C08C81282F30E0B7
:101200008981482F50E0C901880F991F880F991FC5
:10121000880F991F821B930B840F951FFC01E05AC6
:10122000FF4F8081282F30E08981882F90E0A9012D
:1012300002C0440F551F8A95E2F7CA01982F8B818F
:10124000892B8B8389818F5F898389818730A8F27D
:1012500080E06B810E94F2050F900F900F900F902D
:10126000CF91DF910895DF93CF930F92CDB7DEB783
:10127000898383E060E040E00E94A10383E062E0B4
:1012800040E00E94A10383E061E041E00E94A103ED
:1012900080E069810E94F20562E070E080E090E009
:1012A0000E94920683E061E040E00E94A1030F905B
:1012B000CF91DF910895DF93CF93CDB7DEB783E071
:1012C00060E041E00E94770283E062E041E00E943A
:1012D000770283E061E041E00E94770280E06FEFF7
:1012E0000E9453056CE370E080E090E00E9492065B
:1012F0008CE30E94330962E070E080E090E00E949D
:1013000092068CE00E94330962E070E080E090E099
:101310000E94920681E00E94330962E070E080E062
:1013200090E00E94920686E00E94330962E070E03D
:1013300080E090E00E949206CF91DF910895DF93C4
:10134000CF930F92CDB7DEB7898383E060E041E0B1
:101350000E94A10383E062E040E00E94A10383E0D9
:1013600061E041E00E94A10380E069810E94F205F2
:1013700062E070E080E090E00E94920683E061E02D
:1013800040E00E94A1030F90CF91DF910895DF9379
:10139000CF9300D0CDB7DEB789836A838A81882F47
:1013A00090E00296002496958795079496958795E8
:1013B0000794982F802D982F8981890F0E943309D7
:1013C0000F900F90CF91DF910895DF93CF9300D0CE
:1013D0000F92CDB7DEB79B838A83198215C0EA814D
:1013E000FB8180810E949F098A819B8101969B835A
:1013F0008A8389818F5F89838981803129F480E0A4
:1014000061E00E94C7091982EA81FB8180818823FB
:1014100031F70F900F900F90CF91DF910895DF93E8
:10142000CF9300D0CDB7DEB71A8208C082E06A81C0
:1014300041E00E9477028A818F5F8A838A818430AB
:10144000A8F384E0898308C082E0698140E00E94BB
:10145000770289818F5F898389818830A8F382E050
:101460006FEF0E94F2050F900F90CF91DF910895DA
:10147000DF93CF93CDB7DEB729970FB6F894DEBFD1
:101480000FBECDBF9F838E83688781E08C831982D6
:101490008E819F81009709F496C0EE81FF818FEFC6
:1014A00080831B828BC08B81882F90E0FC01EA53E4
:1014B000FF4F908182E0692F40E00E94A1031A82D1
:1014C00067C08A81882F90E0FC01E653FF4F90812E
:1014D0009E012B5F3F4F82E0692FA9010E94C70444
:1014E0008D81882309F051C08A81882F90E0FC010A
:1014F000E653FF4F90819E012B5F3F4F82E0692FA3
:10150000A9010E94C7040FC08A81882F90E0FC01C6
:10151000E653FF4F90819E012B5F3F4F82E0692F82
:10152000A9010E94C7048D81882371F388858823CF
:1015300099F08B81482F50E08A81282F30E0CA0132
:10154000880F991F880F991F820F931FFC01EA547F
:10155000FF4F8081898712C08B81482F50E08A819C
:10156000282F30E0CA01880F991F880F991F820F1A
:10157000931FFC01EA55FF4F80818987EE81FF812F
:101580008985808381E0898307C08A818F5F8A8310
:101590008A81843008F495CF8B81882F90E0FC01FC
:1015A000EA53FF4F908182E0692F41E00E94A1033E
:1015B0008981813049F08B818F5F8B838B8184306F
:1015C00008F471CF01C01C828C8129960FB6F89463
:1015D000DEBF0FBECDBFCF91DF910895DF93CF93D4
:1015E000CDB7DEB781E060E00E94F205CF91DF91D8
:1015F0000895DF93CF9300D000D0CDB7DEB76983D5
:101600007A838B839C8381E067E041E00E94A103A1
:1016100089819A81AB81BC81BC01CD010E94920677
:1016200081E067E040E00E94A1030F900F900F90CF
:101630000F90CF91DF910895DF93CF930F92CDB7A5
:10164000DEB70E946C020E945B090E940F0A83E0D1
:1016500063E040E00E94770283E063E041E00E94A3
:10166000A10381E062E00E946C000E9450008AE4C5
:101670009BE061E00E94B8012091D400CE01019668
:10168000622F0E94380A89818F3FB1F389810E94BD
:101690009F09F2CFDF93CF930F92CDB7DEB7809142
:1016A000D4001982882311F481E089838981809391
:1016B000D4000F90CF91DF910895A1E21A2EAA1BBA
:1016C000BB1BFD010DC0AA1FBB1FEE1FFF1FA217F2
:1016D000B307E407F50720F0A21BB30BE40BF50BEF
:1016E000661F771F881F991F1A9469F76095709578
:1016F000809590959B01AC01BD01CF010895F894B0
:02170000FFCF19
:1017020001010101010100000101000000000101CD
:1017120000010100010101010100000100010100BD
:1017220000010101000101000101010001010101AB
:10173200010101010000010001010101010101019A
:101742000101010001013734312338353230393695
:10175200333D2F2A2D2B4145494D42464A4E4347A0
:0E1762004B4F44484C5000010203040506079B
:00000001FF
