:100000000C942A000C943F000C943F000C943F0089
:100010000C943F000C943F000C943F000C943F0064
:100020000C943F000C943F000C943F000C943F0054
:100030000C943F000C943F000C943F000C943F0044
:100040000C943F000C943F000C943F000C943F0034
:100050000C943F0011241FBECFE5D8E0DEBFCDBF1A
:1000600010E0A0E6B0E0EAEBFDE002C005900D92E2
:10007000AE3BB107D9F70E94C2060C94DB060C9484
:100080000000DF93CF93CDB7DEB7EAE3F0E08FEF68
:100090008083E4E3F0E08FE08083CF91DF910895E7
:1000A000DF93CF93CDB7DEB72E970FB6F894DEBFB0
:1000B0000FBECDBF8A836B834C8381E089838A81A5
:1000C000843008F00CC18B81883008F008C18C8125
:1000D000813021F08C81882309F001C18A81282F89
:1000E00030E03E872D878D859E858130910509F40E
:1000F0004FC02D853E85223031052CF48D859E859F
:10010000009771F0EDC02D853E852230310509F450
:1001100077C08D859E858330910509F4A9C0E0C024
:100120008C81282F30E03C872B878B859C8500971E
:10013000D1F02B853C852130310509F0D1C0AAE3EF
:10014000B0E0EAE3F0E08081482F8B81282F30E097
:1001500081E090E0022E02C0880F991F0A94E2F716
:10016000842B8C93BDC0AAE3B0E0EAE3F0E0808189
:10017000482F8B81282F30E081E090E0022E02C0D2
:10018000880F991F0A94E2F7809584238C93A8C066
:100190008C81282F30E03A87298789859A850097B6
:1001A000D1F029853A852130310509F099C0A7E3BE
:1001B000B0E0E7E3F0E08081482F8B81282F30E02A
:1001C00081E090E0022E02C0880F991F0A94E2F7A6
:1001D000842B8C9385C0A7E3B0E0E7E3F0E0808157
:1001E000482F8B81282F30E081E090E0022E02C062
:1001F000880F991F0A94E2F7809584238C9370C02E
:100200008C81282F30E038872F838F819885009745
:10021000D1F02F8138852130310509F061C0A4E388
:10022000B0E0E4E3F0E08081482F8B81282F30E0BC
:1002300081E090E0022E02C0880F991F0A94E2F735
:10024000842B8C934DC0A4E3B0E0E4E3F0E0808124
:10025000482F8B81282F30E081E090E0022E02C0F1
:10026000880F991F0A94E2F7809584238C9338C0F5
:100270008C81282F30E03E832D838D819E810097D5
:10028000C9F02D813E812130310551F5A1E3B0E067
:10029000E1E3F0E08081482F8B81282F30E081E07E
:1002A00090E0022E02C0880F991F0A94E2F7842B77
:1002B0008C9316C0A1E3B0E0E1E3F0E08081482F29
:1002C0008B81282F30E081E090E0022E02C0880F61
:1002D000991F0A94E2F7809584238C9301C01982B8
:1002E00089812E960FB6F894DEBF0FBECDBFCF9199
:1002F000DF910895DF93CF93CDB7DEB72E970FB67A
:10030000F894DEBF0FBECDBF8A836B834C8381E040
:1003100089838B81883008F008C18A81282F30E0DA
:100320003E872D878D859E858130910509F450C0CB
:100330002D853E85223031052CF48D859E850097D4
:1003400071F0F1C02D853E852230310509F479C068
:100350008D859E858330910509F4ACC0E4C08C8105
:10036000282F30E03C872B878B859C850097C9F030
:100370002B853C852130310549F5ABE3B0E0EBE35B
:10038000F0E08081482F8B81282F30E081E090E0E1
:10039000022E02C0880F991F0A94E2F7842B8C93D7
:1003A000C5C0ABE3B0E0EBE3F0E08081482F8B8188
:1003B000282F30E081E090E0022E02C0880F991FC4
:1003C0000A94E2F7809584238C93B0C01982AEC062
:1003D0008C81282F30E03A87298789859A85009774
:1003E000C9F029853A852130310549F5A8E3B0E007
:1003F000E8E3F0E08081482F8B81282F30E081E016
:1004000090E0022E02C0880F991F0A94E2F7842B15
:100410008C938CC0A8E3B0E0E8E3F0E08081482F43
:100420008B81282F30E081E090E0022E02C0880FFF
:10043000991F0A94E2F7809584238C9377C01982E0
:1004400075C08C81282F30E038872F838F81988565
:100450000097C9F02F8138852130310549F5A5E392
:10046000B0E0E5E3F0E08081482F8B81282F30E079
:1004700081E090E0022E02C0880F991F0A94E2F7F3
:10048000842B8C9353C0A5E3B0E0E5E3F0E08081DA
:10049000482F8B81282F30E081E090E0022E02C0AF
:1004A000880F991F0A94E2F7809584238C933EC0AD
:1004B00019823CC08C81282F30E03E832D838D81B2
:1004C0009E810097C9F02D813E812130310549F58B
:1004D000A2E3B0E0E2E3F0E08081482F8B81282F97
:1004E00030E081E090E0022E02C0880F991F0A944C
:1004F000E2F7842B8C931AC0A2E3B0E0E2E3F0E0D1
:100500008081482F8B81282F30E081E090E0022EFF
:1005100002C0880F991F0A94E2F7809584238C9378
:1005200005C0198203C0198201C0198289812E96E3
:100530000FB6F894DEBF0FBECDBFCF91DF91089507
:10054000DF93CF93CDB7DEB728970FB6F894DEBF11
:100550000FBECDBF8B836C835E834D8381E08A8326
:100560008B81282F30E038872F834F815885413089
:10057000510559F18F8198858230910534F42F818E
:1005800038852115310569F05CC04F8158854230AE
:10059000510579F18F8198858330910509F43DC02B
:1005A00050C0E9E3F0E08081282F30E08C81882F73
:1005B00090E0A90102C0559547958A95E2F7CA01D6
:1005C0008170ED81FE8180833DC0E6E3F0E08081B3
:1005D000282F30E08C81882F90E0A90102C055952A
:1005E00047958A95E2F7CA018170ED81FE8180838B
:1005F00029C0E3E3F0E08081282F30E08C81882F50
:1006000090E0A90102C0559547958A95E2F7CA0185
:100610008170ED81FE81808315C0E0E3F0E0808190
:10062000282F30E08C81882F90E0A90102C05595D9
:1006300047958A95E2F7CA018170ED81FE8180833A
:1006400001C01A828A8128960FB6F894DEBF0FBEC9
:10065000CDBFCF91DF910895DF93CF93CDB7DEB7B4
:100660002D970FB6F894DEBF0FBECDBF8A836B8384
:1006700081E089838B81813021F08B81882309F08F
:100680007FC08A81282F30E03D872C878C859D850F
:100690008130910571F12C853D85223031052CF496
:1006A0008C859D85009769F069C02C853D85223039
:1006B0003105B1F18C859D858330910509F447C0E2
:1006C0005DC08B81282F30E03B872A878A859B85F8
:1006D000009759F02A853B852130310509F051C03A
:1006E000EAE3F0E08FEF80834CC0EAE3F0E01082B1
:1006F00048C08B81282F30E03987288788859985E5
:10070000009751F02885398521303105D1F5E7E38F
:10071000F0E08FEF808335C0E7E3F0E0108231C076
:100720008B81282F30E03F832E838E819F8100971D
:1007300051F02E813F812130310519F5E4E3F0E0DD
:100740008FEF80831EC0E4E3F0E010821AC08B813B
:10075000282F30E03D832C838C819D81009751F0C0
:100760002C813D812130310561F4E1E3F0E08FEF30
:10077000808307C0E1E3F0E0108203C0198201C06A
:10078000198289812D960FB6F894DEBF0FBECDBFBA
:10079000CF91DF910895DF93CF9300D000D00F92D7
:1007A000CDB7DEB78A836B8381E089838A81282F66
:1007B00030E03D832C838C819D8181309105D1F087
:1007C0002C813D81223031052CF48C819D81009754
:1007D00061F01FC02C813D812230310581F08C8178
:1007E0009D818330910581F014C0EBE3F0E08B81B3
:1007F000808310C0E8E3F0E08B8180830BC0E5E3E9
:10080000F0E08B81808306C0E2E3F0E08B8180839F
:1008100001C0198289810F900F900F900F900F9057
:10082000CF91DF910895DF93CF9300D000D000D017
:10083000CDB7DEB78A837C836B8381E089838B812C
:100840009C810097E9F18A81282F30E03E832D8337
:100850008D819E8181309105E1F02D813E81223094
:1008600031052CF48D819E81009761F027C02D8188
:100870003E8122303105A1F08D819E81833091052A
:10088000B1F01CC0E9E3F0E08081EB81FC81808362
:1008900018C0E6E3F0E08081EB81FC81808311C029
:1008A000E3E3F0E08081EB81FC8180830AC0E0E338
:1008B000F0E08081EB81FC81808303C0198201C05C
:1008C0001982898126960FB6F894DEBF0FBECDBF80
:1008D000CF91DF910895DF93CF93CDB7DEB72C97FB
:1008E0000FB6F894DEBF0FBECDBF69877A878B87BE
:1008F0009C871D821E821F82188625C019821A823B
:100900001B821C820CC0000089819A81AB81BC8152
:100910000196A11DB11D89839A83AB83BC83898114
:100920009A81AB81BC81813E9105A105B10558F347
:100930008D819E81AF81B8850196A11DB11D8D83EA
:100940009E83AF83B8872D813E814F8158858985ED
:100950009A85AB85BC85281739074A075B0770F273
:100960002C960FB6F894DEBF0FBECDBFCF91DF91AE
:100970000895DF93CF93CDB7DEB7EAE3F0E080814F
:1009800061E00E942C03CF91DF910895DF93CF9314
:10099000CDB7DEB780E067E040E00E947A01CF91FA
:1009A000DF910895DF93CF93CDB7DEB780E067E0A6
:1009B00041E00E947A01CF91DF910895DF93CF93B8
:1009C00000D000D0CDB7DEB78C831B82198228C03F
:1009D0008C81282F30E08981482F50E0C901880F91
:1009E000991F880F991F880F991F821B930B840FE3
:1009F000951FFC01E05AFF4F8081282F30E089814C
:100A0000882F90E0A90102C0440F551F8A95E2F794
:100A1000CA01982F8B81892B8B8389818F5F898372
:100A200089818730A8F280E06B810E94CB030F9010
:100A30000F900F900F90CF91DF910895DF93CF9398
:100A40000F92CDB7DEB7898383E060E040E00E947B
:100A50007A0183E062E040E00E947A0183E061E095
:100A600041E00E947A0180E069810E94CB0362E04C
:100A700070E080E090E00E946B0483E061E040E081
:100A80000E947A010F90CF91DF910895DF93CF9369
:100A9000CDB7DEB783E060E041E00E94500083E024
:100AA00062E041E00E94500083E061E041E00E948A
:100AB000500080E06FEF0E942C036CE370E080E058
:100AC00090E00E946B048CE30E941E0562E070E0DF
:100AD00080E090E00E946B048CE00E941E0562E0C2
:100AE00070E080E090E00E946B0481E00E941E05AF
:100AF00062E070E080E090E00E946B0486E00E947B
:100B00001E0562E070E080E090E00E946B04CF91EF
:100B1000DF910895DF93CF930F92CDB7DEB789832E
:100B200083E060E041E00E947A0183E062E040E01F
:100B30000E947A0183E061E041E00E947A0180E056
:100B400069810E94CB0362E070E080E090E00E9447
:100B50006B0483E061E040E00E947A010F90CF9146
:100B6000DF910895DF93CF9300D0CDB7DEB78983AF
:100B70006A838A81882F90E0029600249695879553
:100B80000794969587950794982F802D982F8981A3
:100B9000890F0E941E050F900F90CF91DF9108954D
:100BA000DF93CF9300D00F92CDB7DEB79B838A83BC
:100BB000198215C0EA81FB8180810E948A058A81A1
:100BC0009B8101969B838A8389818F5F8983898139
:100BD000803129F480E061E00E94B2051982EA8147
:100BE000FB818081882331F70F900F900F90CF9178
:100BF000DF910895DF93CF9300D0CDB7DEB71A828F
:100C000008C082E06A8140E00E947A018A818F5F99
:100C10008A838A818430A8F384E0898308C082E0D3
:100C2000698141E00E947A0189818F5F898389818E
:100C30008830A8F30F900F90CF91DF910895DF9344
:100C4000CF93CDB7DEB727970FB6F894DEBF0FBEB0
:100C5000CDBF9F838E8381E08C8319828E819F819B
:100C6000009709F484C0EE81FF818FEF80831B829F
:100C700079C08B81882F90E0FC01EA54FF4F90816E
:100C800082E0692F40E00E947A011A8255C08A8171
:100C9000882F90E0FC01E654FF4F90819E012B5F6E
:100CA0003F4F82E0692FA9010E94A0028D81882315
:100CB00009F03FC064E170E080E090E00E946B04C6
:100CC0008A81882F90E0FC01E654FF4F90819E01BD
:100CD0002B5F3F4F82E0692FA9010E94A0020FC045
:100CE0008A81882F90E0FC01E654FF4F90819E019D
:100CF0002B5F3F4F82E0692FA9010E94A0028D81E6
:100D0000882371F38B81482F50E08A81282F30E0AF
:100D1000CA01880F991F880F991F820F931FFC012A
:100D2000EA55FF4F8081EE81FF81808381E08983D6
:100D300007C08A818F5F8A838A81843008F4A7CFB5
:100D40008B81882F90E0FC01EA54FF4F908182E074
:100D5000692F41E00E947A018981813049F08B81BD
:100D60008F5F8B838B81843008F483CF01C01C821A
:100D70008C8127960FB6F894DEBF0FBECDBFCF9102
:100D8000DF910895DF93CF930F92CDB7DEB70E9426
:100D900041000E9446050E94FA05CE0101960E947C
:100DA0001F0689818F3FC9F381E00E941E0589815A
:0A0DB0000E948A05F2CFF894FFCFED
:100DBA00010101010101000001010000000001011F
:100DCA00000101000101010101000001000101000F
:100DDA0000010101000101000101010001010101FD
:100DEA0001010101000001000101010101010101EC
:100DFA0001010100010133363923323538303134EB
:0E0E0A00372A23252B2A0001020304050607C0
:00000001FF
